{
  "transactions": [
    {
      "hash": "0x5c989ccc8e0b7f821cb62948eb09c57cc2cc1706533fc996a8579ce4c44d580a",
      "transactionType": "CALL",
      "contractName": null,
      "contractAddress": "0x06d9170d6e6f7bc7536351dd7b7dbb7042aabde4",
      "function": "createProject(string,string,uint256,uint256)",
      "arguments": [
        "\"Title0\"",
        "\"Description0\"",
        "10000000000000",
        "604800"
      ],
      "transaction": {
        "from": "0xcff4560643cfa8ef9ac19c0b130d0682a143d841",
        "to": "0x06d9170d6e6f7bc7536351dd7b7dbb7042aabde4",
        "gas": "0xfc4d5",
        "value": "0x0",
        "input": "0x94ba9709000000000000000000000000000000000000000000000000000000000000008000000000000000000000000000000000000000000000000000000000000000c0000000000000000000000000000000000000000000000000000009184e72a0000000000000000000000000000000000000000000000000000000000000093a8000000000000000000000000000000000000000000000000000000000000000065469746c65300000000000000000000000000000000000000000000000000000000000000000000000000000000000000000000000000000000000000000000c4465736372697074696f6e300000000000000000000000000000000000000000",
        "nonce": "0x1",
        "chainId": "0x66eee"
      },
      "additionalContracts": [],
      "isFixedGasLimit": false
    },
    {
      "hash": "0x5cb73769a5016615f68fad45288683e8f4a991dac217e4f25311dec7c520313c",
      "transactionType": "CALL",
      "contractName": null,
      "contractAddress": "0x06d9170d6e6f7bc7536351dd7b7dbb7042aabde4",
      "function": "fundProject(uint256)",
      "arguments": [
        "0"
      ],
      "transaction": {
        "from": "0xcff4560643cfa8ef9ac19c0b130d0682a143d841",
        "to": "0x06d9170d6e6f7bc7536351dd7b7dbb7042aabde4",
        "gas": "0x1b5e4",
        "value": "0x9184e72a000",
        "input": "0x6c563abe0000000000000000000000000000000000000000000000000000000000000000",
        "nonce": "0x2",
        "chainId": "0x66eee"
      },
      "additionalContracts": [],
      "isFixedGasLimit": false
    },
    {
      "hash": "0x0ba8fd8e7e32dc1e921db4999d56fb57e61cbf97043a52016da1f2bd3217e5dc",
      "transactionType": "CALL",
      "contractName": null,
      "contractAddress": "0x06d9170d6e6f7bc7536351dd7b7dbb7042aabde4",
      "function": "withdraw(uint256)",
      "arguments": [
        "0"
      ],
      "transaction": {
        "from": "0xcff4560643cfa8ef9ac19c0b130d0682a143d841",
        "to": "0x06d9170d6e6f7bc7536351dd7b7dbb7042aabde4",
        "gas": "0x1a698",
        "value": "0x0",
        "input": "0x2e1a7d4d0000000000000000000000000000000000000000000000000000000000000000",
        "nonce": "0x3",
        "chainId": "0x66eee"
      },
      "additionalContracts": [],
      "isFixedGasLimit": false
    },
    {
      "hash": "0x9a884b129973bc446eb82e5280b1d629e00acff959eb253acc0dd4b7fd763d00",
      "transactionType": "CALL",
      "contractName": null,
      "contractAddress": "0x06d9170d6e6f7bc7536351dd7b7dbb7042aabde4",
      "function": "createProject(string,string,uint256,uint256)",
      "arguments": [
        "\"Title1\"",
        "\"Description1\"",
        "10000000000000",
        "604800"
      ],
      "transaction": {
        "from": "0xcff4560643cfa8ef9ac19c0b130d0682a143d841",
        "to": "0x06d9170d6e6f7bc7536351dd7b7dbb7042aabde4",
        "gas": "0xfc4d5",
        "value": "0x0",
        "input": "0x94ba9709000000000000000000000000000000000000000000000000000000000000008000000000000000000000000000000000000000000000000000000000000000c0000000000000000000000000000000000000000000000000000009184e72a0000000000000000000000000000000000000000000000000000000000000093a8000000000000000000000000000000000000000000000000000000000000000065469746c65310000000000000000000000000000000000000000000000000000000000000000000000000000000000000000000000000000000000000000000c4465736372697074696f6e310000000000000000000000000000000000000000",
        "nonce": "0x4",
        "chainId": "0x66eee"
      },
      "additionalContracts": [],
      "isFixedGasLimit": false
    },
    {
      "hash": "0x1b0fda302ad0ec4ced5eeb9b7a7f5081ad52dcb1bf928e48a874d94bce51f52d",
      "transactionType": "CALL",
      "contractName": null,
      "contractAddress": "0x06d9170d6e6f7bc7536351dd7b7dbb7042aabde4",
      "function": "fundProject(uint256)",
      "arguments": [
        "1"
      ],
      "transaction": {
        "from": "0xcff4560643cfa8ef9ac19c0b130d0682a143d841",
        "to": "0x06d9170d6e6f7bc7536351dd7b7dbb7042aabde4",
        "gas": "0x19da0",
        "value": "0x9184e72a000",
        "input": "0x6c563abe0000000000000000000000000000000000000000000000000000000000000001",
        "nonce": "0x5",
        "chainId": "0x66eee"
      },
      "additionalContracts": [],
      "isFixedGasLimit": false
    },
    {
      "hash": "0x9c14d60f830c620208d0fc326daefb694927872cd730f1ecd9bdbad27c6d4301",
      "transactionType": "CALL",
      "contractName": null,
      "contractAddress": "0x06d9170d6e6f7bc7536351dd7b7dbb7042aabde4",
      "function": "withdraw(uint256)",
      "arguments": [
        "1"
      ],
      "transaction": {
        "from": "0xcff4560643cfa8ef9ac19c0b130d0682a143d841",
        "to": "0x06d9170d6e6f7bc7536351dd7b7dbb7042aabde4",
        "gas": "0x1a6a4",
        "value": "0x0",
        "input": "0x2e1a7d4d0000000000000000000000000000000000000000000000000000000000000001",
        "nonce": "0x6",
        "chainId": "0x66eee"
      },
      "additionalContracts": [],
      "isFixedGasLimit": false
    }
  ],
  "receipts": [
    {
      "status": "0x1",
      "cumulativeGasUsed": "0xa101b",
      "logs": [
        {
          "address": "0x06d9170d6e6f7bc7536351dd7b7dbb7042aabde4",
          "topics": [
            "0x63c92f9505d420bff631cb9df33be952bdc11e2118da36a850b43e6bcc4ce4de",
            "0x0000000000000000000000000000000000000000000000000000000000000000"
          ],
          "data": "0x000000000000000000000000cff4560643cfa8ef9ac19c0b130d0682a143d841",
          "blockHash": "0x212cfda34204c7e4f838b44195e1e60096f47cfbfc9abd72b7dd54f6ee06f2e4",
          "blockNumber": "0x3a65689",
          "transactionHash": "0x5c989ccc8e0b7f821cb62948eb09c57cc2cc1706533fc996a8579ce4c44d580a",
          "transactionIndex": "0x1",
          "logIndex": "0x0",
          "removed": false
        }
      ],
      "logsBloom": "0x00000000000000000000000000000000008000001000000000000000000000000000000000000000000000000000000000000000000000000000000000000000000000000000000000000000000000000000000000000000000000000000000000000000020000000000000000000800120000000000000000000000000000000000000000000000000000000010000000000000000000000000000000000000000000000000000000000000000000000000000000000000000000000000000000000000000000000000000000000000000000000000000000000000000020000000000000000000000000000010000000000000000000000000000000000000",
      "type": "0x0",
      "transactionHash": "0x5c989ccc8e0b7f821cb62948eb09c57cc2cc1706533fc996a8579ce4c44d580a",
      "transactionIndex": "0x1",
      "blockHash": "0x212cfda34204c7e4f838b44195e1e60096f47cfbfc9abd72b7dd54f6ee06f2e4",
      "blockNumber": "0x3a65689",
      "gasUsed": "0xa101b",
      "effectiveGasPrice": "0x5f5e100",
      "from": "0xcff4560643cfa8ef9ac19c0b130d0682a143d841",
      "to": "0x06d9170d6e6f7bc7536351dd7b7dbb7042aabde4",
      "contractAddress": null,
      "gasUsedForL1": "0x78aaf",
      "l1BlockNumber": "0x5f5b5f"
    },
    {
      "status": "0x1",
      "cumulativeGasUsed": "0x1e7f84",
      "logs": [
        {
          "address": "0x06d9170d6e6f7bc7536351dd7b7dbb7042aabde4",
          "topics": [
            "0x57e19e2aa06e728bbca970637be628efcda39018466d09026b4d04232479acb8",
            "0x0000000000000000000000000000000000000000000000000000000000000000"
          ],
          "data": "0x000000000000000000000000cff4560643cfa8ef9ac19c0b130d0682a143d841000000000000000000000000000000000000000000000000000009184e72a000",
          "blockHash": "0xa66430f220f68217f1289867e559e91e0738e545b15357537ddc6bb34d4f6e64",
          "blockNumber": "0x3a6568f",
          "transactionHash": "0x5cb73769a5016615f68fad45288683e8f4a991dac217e4f25311dec7c520313c",
          "transactionIndex": "0x2",
          "logIndex": "0x2",
          "removed": false
        }
      ],
      "logsBloom": "0x00000000000000000000000000000000000000000000000000000000000000000000000000000000000000000000000000000000000000000000000000000000000000000000000000000000000000000000000000000000000000000000000000000000020000000000000000000800020000000000000000000100000000000000000000000000000000000010000000000000000000000000000000000000000000000000000000000000000000000000000000000004000000000000000000000000000010000000000000000000000000000000000000000000000020000000000000000000000000000010000000000000000000000000000000000000",
      "type": "0x0",
      "transactionHash": "0x5cb73769a5016615f68fad45288683e8f4a991dac217e4f25311dec7c520313c",
      "transactionIndex": "0x2",
      "blockHash": "0xa66430f220f68217f1289867e559e91e0738e545b15357537ddc6bb34d4f6e64",
      "blockNumber": "0x3a6568f",
      "gasUsed": "0x5a2ae",
      "effectiveGasPrice": "0x5f5e100",
      "from": "0xcff4560643cfa8ef9ac19c0b130d0682a143d841",
      "to": "0x06d9170d6e6f7bc7536351dd7b7dbb7042aabde4",
      "contractAddress": null,
      "gasUsedForL1": "0x47744",
      "l1BlockNumber": "0x5f5b5f"
    },
    {
      "status": "0x1",
      "cumulativeGasUsed": "0x57bcb",
      "logs": [
        {
          "address": "0x06d9170d6e6f7bc7536351dd7b7dbb7042aabde4",
          "topics": [
            "0x414d6a76d6a104efa26174057b560f7351b16d60f3e31756f01e67f9b264e5b9",
            "0x0000000000000000000000000000000000000000000000000000000000000000"
          ],
          "data": "0x000000000000000000000000cff4560643cfa8ef9ac19c0b130d0682a143d841000000000000000000000000000000000000000000000000000008a3e4201800",
          "blockHash": "0x924c5881c9fef7ca2ab09f7985870ee0637de447e8e879bd0bb285ca32676750",
          "blockNumber": "0x3a65695",
          "transactionHash": "0x0ba8fd8e7e32dc1e921db4999d56fb57e61cbf97043a52016da1f2bd3217e5dc",
          "transactionIndex": "0x1",
          "logIndex": "0x0",
          "removed": false
        }
      ],
      "logsBloom": "0x00000000000000000000000000000000000000000000000000000000000000000000000000000000000000040000000000000000000000000000000000000000000000000000000000000000000000000000000000000000000000000000000000000000020000000000000000000800020000000000000000000000000000000000000000000000000000000010000000000000000000000000000000000000000000000000100000000000000000008000000000000000000000000000000000000000000000000000000000000000000000000000000000000000000020000000000000000000000000000010000000000000000000000000000000000000",
      "type": "0x0",
      "transactionHash": "0x0ba8fd8e7e32dc1e921db4999d56fb57e61cbf97043a52016da1f2bd3217e5dc",
      "transactionIndex": "0x1",
      "blockHash": "0x924c5881c9fef7ca2ab09f7985870ee0637de447e8e879bd0bb285ca32676750",
      "blockNumber": "0x3a65695",
      "gasUsed": "0x57bcb",
      "effectiveGasPrice": "0x5f5e100",
      "from": "0xcff4560643cfa8ef9ac19c0b130d0682a143d841",
      "to": "0x06d9170d6e6f7bc7536351dd7b7dbb7042aabde4",
      "contractAddress": null,
      "gasUsedForL1": "0x449d7",
      "l1BlockNumber": "0x5f5b5f"
    },
    {
      "status": "0x1",
      "cumulativeGasUsed": "0xfecdb",
      "logs": [
        {
          "address": "0x06d9170d6e6f7bc7536351dd7b7dbb7042aabde4",
          "topics": [
            "0x63c92f9505d420bff631cb9df33be952bdc11e2118da36a850b43e6bcc4ce4de",
            "0x0000000000000000000000000000000000000000000000000000000000000001"
          ],
          "data": "0x000000000000000000000000cff4560643cfa8ef9ac19c0b130d0682a143d841",
          "blockHash": "0x3f28fbd28b77bd5c28120b92ac22b800fbd1c2321175e228760f25dcdc2643a8",
          "blockNumber": "0x3a6569b",
          "transactionHash": "0x9a884b129973bc446eb82e5280b1d629e00acff959eb253acc0dd4b7fd763d00",
          "transactionIndex": "0x2",
          "logIndex": "0x1",
          "removed": false
        }
      ],
      "logsBloom": "0x00000000000000000000000000000000008000001000000000000000000000000000000000000000000000000000000000000000000000000000000000040000000000000000000000000000000000000000000000040000000000000000000000000000000000000000000000000000120000000000000000000000000000000000000000000000000000000010000000000000000000000000000000000000000000000000000000000000000000000000000000000000000000000000000000000000000000000000000000000000000000000000000000000000000040000000000000000000000000000010000000000000000000000000000000000000",
      "type": "0x0",
      "transactionHash": "0x9a884b129973bc446eb82e5280b1d629e00acff959eb253acc0dd4b7fd763d00",
      "transactionIndex": "0x2",
      "blockHash": "0x3f28fbd28b77bd5c28120b92ac22b800fbd1c2321175e228760f25dcdc2643a8",
      "blockNumber": "0x3a6569b",
      "gasUsed": "0xa2a30",
      "effectiveGasPrice": "0x5f5e100",
      "from": "0xcff4560643cfa8ef9ac19c0b130d0682a143d841",
      "to": "0x06d9170d6e6f7bc7536351dd7b7dbb7042aabde4",
      "contractAddress": null,
      "gasUsedForL1": "0x799d4",
      "l1BlockNumber": "0x5f5b5f"
    },
    {
      "status": "0x1",
      "cumulativeGasUsed": "0x10b6b0",
      "logs": [
        {
          "address": "0x06d9170d6e6f7bc7536351dd7b7dbb7042aabde4",
          "topics": [
            "0x57e19e2aa06e728bbca970637be628efcda39018466d09026b4d04232479acb8",
            "0x0000000000000000000000000000000000000000000000000000000000000001"
          ],
          "data": "0x000000000000000000000000cff4560643cfa8ef9ac19c0b130d0682a143d841000000000000000000000000000000000000000000000000000009184e72a000",
          "blockHash": "0x1a70509feb7a9c8e1388644abaaf98cf9c41bc30e9d05571029ec1157f3ce8c6",
          "blockNumber": "0x3a656a1",
          "transactionHash": "0x1b0fda302ad0ec4ced5eeb9b7a7f5081ad52dcb1bf928e48a874d94bce51f52d",
          "transactionIndex": "0x2",
          "logIndex": "0x0",
          "removed": false
        }
      ],
      "logsBloom": "0x00000000000000000000000000000000000000000000000000000000000000000000000000000000000000000000000000000000000000000000000000040000000000000000000000000000000000000000000000040000000000000000000000000000000000000000000000000000020000000000000000000100000000000000000000000000000000000010000000000000000000000000000000000000000000000000000000000000000000000000000000000004000000000000000000000000000010000000000000000000000000000000000000000000000040000000000000000000000000000010000000000000000000000000000000000000",
      "type": "0x0",
      "transactionHash": "0x1b0fda302ad0ec4ced5eeb9b7a7f5081ad52dcb1bf928e48a874d94bce51f52d",
      "transactionIndex": "0x2",
      "blockHash": "0x1a70509feb7a9c8e1388644abaaf98cf9c41bc30e9d05571029ec1157f3ce8c6",
      "blockNumber": "0x3a656a1",
      "gasUsed": "0x5a2ba",
      "effectiveGasPrice": "0x5f5e100",
      "from": "0xcff4560643cfa8ef9ac19c0b130d0682a143d841",
      "to": "0x06d9170d6e6f7bc7536351dd7b7dbb7042aabde4",
      "contractAddress": null,
      "gasUsedForL1": "0x47744",
      "l1BlockNumber": "0x5f5b5f"
    },
    {
      "status": "0x1",
      "cumulativeGasUsed": "0x5a9486",
      "logs": [
        {
          "address": "0x06d9170d6e6f7bc7536351dd7b7dbb7042aabde4",
          "topics": [
            "0x414d6a76d6a104efa26174057b560f7351b16d60f3e31756f01e67f9b264e5b9",
            "0x0000000000000000000000000000000000000000000000000000000000000001"
          ],
          "data": "0x000000000000000000000000cff4560643cfa8ef9ac19c0b130d0682a143d841000000000000000000000000000000000000000000000000000008a3e4201800",
          "blockHash": "0x986363e31c5d79aed978c3be2bbae450d17847ddcfdd70bd758f83451ef39ea9",
          "blockNumber": "0x3a656a7",
          "transactionHash": "0x9c14d60f830c620208d0fc326daefb694927872cd730f1ecd9bdbad27c6d4301",
          "transactionIndex": "0x3",
          "logIndex": "0xe",
          "removed": false
        }
      ],
      "logsBloom": "0x00000000000000000000000000000000000000000000000000000000000000000000000000000000000000040000000000000000000000000000000000040000000000000000000000000000000000000000000000040000000000000000000000000000000000000000000000000000020000000000000000000000000000000000000000000000000000000010000000000000000000000000000000000000000000000000100000000000000000008000000000000000000000000000000000000000000000000000000000000000000000000000000000000000000040000000000000000000000000000010000000000000000000000000000000000000",
      "type": "0x0",
      "transactionHash": "0x9c14d60f830c620208d0fc326daefb694927872cd730f1ecd9bdbad27c6d4301",
      "transactionIndex": "0x3",
      "blockHash": "0x986363e31c5d79aed978c3be2bbae450d17847ddcfdd70bd758f83451ef39ea9",
      "blockNumber": "0x3a656a7",
      "gasUsed": "0x57bd4",
      "effectiveGasPrice": "0x5f5e100",
      "from": "0xcff4560643cfa8ef9ac19c0b130d0682a143d841",
      "to": "0x06d9170d6e6f7bc7536351dd7b7dbb7042aabde4",
      "contractAddress": null,
      "gasUsedForL1": "0x449d7",
      "l1BlockNumber": "0x5f5b5f"
    }
  ],
  "libraries": [],
  "pending": [],
  "returns": {},
  "timestamp": 1720162521,
  "chain": 421614,
  "commit": "075ce08"
}