{
  "transactions": [
    {
      "hash": "0xce8c743718761a6a59947e2343ff8254d4e28451a577282f0659d1a2987427d6",
      "transactionType": "CALL",
      "contractName": null,
      "contractAddress": "0x103dab21201672cdec9ed25546d1c140ef3bfe11",
      "function": "createProject(string,string,uint256,uint256)",
      "arguments": [
        "\"Title0\"",
        "\"Description0\"",
        "10000000000000",
        "604800"
      ],
      "transaction": {
        "from": "0x1a870c94a199eb623b545b58eb175f72e1dc629e",
        "to": "0x103dab21201672cdec9ed25546d1c140ef3bfe11",
        "gas": "0x37b7c",
        "value": "0x0",
        "input": "0x94ba9709000000000000000000000000000000000000000000000000000000000000008000000000000000000000000000000000000000000000000000000000000000c0000000000000000000000000000000000000000000000000000009184e72a0000000000000000000000000000000000000000000000000000000000000093a8000000000000000000000000000000000000000000000000000000000000000065469746c65300000000000000000000000000000000000000000000000000000000000000000000000000000000000000000000000000000000000000000000c4465736372697074696f6e300000000000000000000000000000000000000000",
        "nonce": "0x0",
        "chainId": "0x61"
      },
      "additionalContracts": [],
      "isFixedGasLimit": false
    },
    {
      "hash": "0xba7cd6a566eaf44906862d85b732d280fe391857058d97b901541d362d768be6",
      "transactionType": "CALL",
      "contractName": null,
      "contractAddress": "0x103dab21201672cdec9ed25546d1c140ef3bfe11",
      "function": "fundProject(uint256)",
      "arguments": [
        "0"
      ],
      "transaction": {
        "from": "0x385d01dee3758d49a7a9cb2b18d10141bb572348",
        "to": "0x103dab21201672cdec9ed25546d1c140ef3bfe11",
        "gas": "0x1b5e4",
        "value": "0x9184e72a000",
        "input": "0x6c563abe0000000000000000000000000000000000000000000000000000000000000000",
        "nonce": "0x0",
        "chainId": "0x61"
      },
      "additionalContracts": [],
      "isFixedGasLimit": false
    },
    {
      "hash": "0x7397b9d02eada6f43741fea68721cf58e0a28c456c59f7a91f509331b9d96ebc",
      "transactionType": "CALL",
      "contractName": null,
      "contractAddress": "0x103dab21201672cdec9ed25546d1c140ef3bfe11",
      "function": "withdraw(uint256)",
      "arguments": [
        "0"
      ],
      "transaction": {
        "from": "0x1a870c94a199eb623b545b58eb175f72e1dc629e",
        "to": "0x103dab21201672cdec9ed25546d1c140ef3bfe11",
        "gas": "0x1b163",
        "value": "0x0",
        "input": "0x2e1a7d4d0000000000000000000000000000000000000000000000000000000000000000",
        "nonce": "0x1",
        "chainId": "0x61"
      },
      "additionalContracts": [],
      "isFixedGasLimit": false
    },
    {
      "hash": "0xaa283b7a9b6d2934bbb2fe57f514004ce38e0e02eda43bc37dc502503d0186d6",
      "transactionType": "CALL",
      "contractName": null,
      "contractAddress": "0x103dab21201672cdec9ed25546d1c140ef3bfe11",
      "function": "createProject(string,string,uint256,uint256)",
      "arguments": [
        "\"Title1\"",
        "\"Description1\"",
        "10000000000000",
        "604800"
      ],
      "transaction": {
        "from": "0x1a870c94a199eb623b545b58eb175f72e1dc629e",
        "to": "0x103dab21201672cdec9ed25546d1c140ef3bfe11",
        "gas": "0x38a97",
        "value": "0x0",
        "input": "0x94ba9709000000000000000000000000000000000000000000000000000000000000008000000000000000000000000000000000000000000000000000000000000000c0000000000000000000000000000000000000000000000000000009184e72a0000000000000000000000000000000000000000000000000000000000000093a8000000000000000000000000000000000000000000000000000000000000000065469746c65310000000000000000000000000000000000000000000000000000000000000000000000000000000000000000000000000000000000000000000c4465736372697074696f6e310000000000000000000000000000000000000000",
        "nonce": "0x2",
        "chainId": "0x61"
      },
      "additionalContracts": [],
      "isFixedGasLimit": false
    },
    {
      "hash": "0x0d6dc8c4d63b11fc7c0cbe56335dfc241a0a5f6874b9b80d58ce02fcf2946fff",
      "transactionType": "CALL",
      "contractName": null,
      "contractAddress": "0x103dab21201672cdec9ed25546d1c140ef3bfe11",
      "function": "fundProject(uint256)",
      "arguments": [
        "1"
      ],
      "transaction": {
        "from": "0x385d01dee3758d49a7a9cb2b18d10141bb572348",
        "to": "0x103dab21201672cdec9ed25546d1c140ef3bfe11",
        "gas": "0x19da0",
        "value": "0x9184e72a000",
        "input": "0x6c563abe0000000000000000000000000000000000000000000000000000000000000001",
        "nonce": "0x1",
        "chainId": "0x61"
      },
      "additionalContracts": [],
      "isFixedGasLimit": false
    },
    {
      "hash": "0x57da8a2e5886d025d13ac58f95b6c4adad01e146db9c7ea00ab3274e79663f75",
      "transactionType": "CALL",
      "contractName": null,
      "contractAddress": "0x103dab21201672cdec9ed25546d1c140ef3bfe11",
      "function": "withdraw(uint256)",
      "arguments": [
        "1"
      ],
      "transaction": {
        "from": "0x1a870c94a199eb623b545b58eb175f72e1dc629e",
        "to": "0x103dab21201672cdec9ed25546d1c140ef3bfe11",
        "gas": "0x1b16e",
        "value": "0x0",
        "input": "0x2e1a7d4d0000000000000000000000000000000000000000000000000000000000000001",
        "nonce": "0x3",
        "chainId": "0x61"
      },
      "additionalContracts": [],
      "isFixedGasLimit": false
    }
  ],
  "receipts": [
    {
      "status": "0x1",
      "cumulativeGasUsed": "0x51f5f",
      "logs": [
        {
          "address": "0x103dab21201672cdec9ed25546d1c140ef3bfe11",
          "topics": [
            "0x63c92f9505d420bff631cb9df33be952bdc11e2118da36a850b43e6bcc4ce4de",
            "0x0000000000000000000000000000000000000000000000000000000000000000"
          ],
          "data": "0x0000000000000000000000001a870c94a199eb623b545b58eb175f72e1dc629e",
          "blockHash": "0x289f9c6c1db398f3c811d49deca2307ca069a8ef709a9e8b95f4c9f1cbf7a3f7",
          "blockNumber": "0x27e0923",
          "transactionHash": "0xce8c743718761a6a59947e2343ff8254d4e28451a577282f0659d1a2987427d6",
          "transactionIndex": "0x2",
          "logIndex": "0x3",
          "removed": false
        }
      ],
      "logsBloom": "0x00000000000000000000004000000000008000001000000000000000000000000000000000000000000000000000000000000000000000000000000000000000000000000000000000000000000000000000000000000000000000000000000000000000020000000000000000000800100000000000000000000000000000000000000000000000000000000000000000000000004000000000000000000000000000000000000000000000000000000000000000000000000000000000000000000000000000000000000000000000000000000000000000000000000020000000000000000000000000000000000000000000000000000000000800000000",
      "type": "0x0",
      "transactionHash": "0xce8c743718761a6a59947e2343ff8254d4e28451a577282f0659d1a2987427d6",
      "transactionIndex": "0x2",
      "blockHash": "0x289f9c6c1db398f3c811d49deca2307ca069a8ef709a9e8b95f4c9f1cbf7a3f7",
      "blockNumber": "0x27e0923",
      "gasUsed": "0x2856c",
      "effectiveGasPrice": "0x12a05f200",
      "from": "0x1a870c94a199eb623b545b58eb175f72e1dc629e",
      "to": "0x103dab21201672cdec9ed25546d1c140ef3bfe11",
      "contractAddress": null
    },
    {
      "status": "0x1",
      "cumulativeGasUsed": "0x65f8d",
      "logs": [
        {
          "address": "0x103dab21201672cdec9ed25546d1c140ef3bfe11",
          "topics": [
            "0x57e19e2aa06e728bbca970637be628efcda39018466d09026b4d04232479acb8",
            "0x0000000000000000000000000000000000000000000000000000000000000000"
          ],
          "data": "0x000000000000000000000000385d01dee3758d49a7a9cb2b18d10141bb572348000000000000000000000000000000000000000000000000000009184e72a000",
          "blockHash": "0x32ca43e684bff41a4a591b2aa105f63cd83851527850df304c78d6f0562be304",
          "blockNumber": "0x27e0924",
          "transactionHash": "0xba7cd6a566eaf44906862d85b732d280fe391857058d97b901541d362d768be6",
          "transactionIndex": "0x4",
          "logIndex": "0x6",
          "removed": false
        }
      ],
      "logsBloom": "0x00000000000000000000004000000000000000000000000000000000000000000000000000000000000000000000000000000000000000000000000000000000000000000000000000000000000000000000000000000000000000000000000000000000020000000000000000000800000000000000000000000100000000000000000000000000000000000000000000000000004000000000000000000000000000000000000000000000000000000000000000000004000000000000000000000000000010000000000000000000000000000000000000000000000020000000000000000000000000000000000000000000000000000000000800000000",
      "type": "0x0",
      "transactionHash": "0xba7cd6a566eaf44906862d85b732d280fe391857058d97b901541d362d768be6",
      "transactionIndex": "0x4",
      "blockHash": "0x32ca43e684bff41a4a591b2aa105f63cd83851527850df304c78d6f0562be304",
      "blockNumber": "0x27e0924",
      "gasUsed": "0x12b6a",
      "effectiveGasPrice": "0x12a05f200",
      "from": "0x385d01dee3758d49a7a9cb2b18d10141bb572348",
      "to": "0x103dab21201672cdec9ed25546d1c140ef3bfe11",
      "contractAddress": null
    },
    {
      "status": "0x1",
      "cumulativeGasUsed": "0x139c4",
      "logs": [
        {
          "address": "0x103dab21201672cdec9ed25546d1c140ef3bfe11",
          "topics": [
            "0x414d6a76d6a104efa26174057b560f7351b16d60f3e31756f01e67f9b264e5b9",
            "0x0000000000000000000000000000000000000000000000000000000000000000"
          ],
          "data": "0x0000000000000000000000001a870c94a199eb623b545b58eb175f72e1dc629e000000000000000000000000000000000000000000000000000008a3e4201800",
          "blockHash": "0xbf2af8aa9a20cf4db16c844e8929dfa69895d64e4bddccb244b2b63458ab1387",
          "blockNumber": "0x27e0927",
          "transactionHash": "0x7397b9d02eada6f43741fea68721cf58e0a28c456c59f7a91f509331b9d96ebc",
          "transactionIndex": "0x0",
          "logIndex": "0x0",
          "removed": false
        }
      ],
      "logsBloom": "0x00000000000000000000004000000000000000000000000000000000000000000000000000000000000000040000000000000000000000000000000000000000000000000000000000000000000000000000000000000000000000000000000000000000020000000000000000000800000000000000000000000000000000000000000000000000000000000000000000000000004000000000000000000000000000000000100000000000000000008000000000000000000000000000000000000000000000000000000000000000000000000000000000000000000020000000000000000000000000000000000000000000000000000000000800000000",
      "type": "0x0",
      "transactionHash": "0x7397b9d02eada6f43741fea68721cf58e0a28c456c59f7a91f509331b9d96ebc",
      "transactionIndex": "0x0",
      "blockHash": "0xbf2af8aa9a20cf4db16c844e8929dfa69895d64e4bddccb244b2b63458ab1387",
      "blockNumber": "0x27e0927",
      "gasUsed": "0x139c4",
      "effectiveGasPrice": "0x12a05f200",
      "from": "0x1a870c94a199eb623b545b58eb175f72e1dc629e",
      "to": "0x103dab21201672cdec9ed25546d1c140ef3bfe11",
      "contractAddress": null
    },
    {
      "status": "0x1",
      "cumulativeGasUsed": "0x42cde",
      "logs": [
        {
          "address": "0x103dab21201672cdec9ed25546d1c140ef3bfe11",
          "topics": [
            "0x63c92f9505d420bff631cb9df33be952bdc11e2118da36a850b43e6bcc4ce4de",
            "0x0000000000000000000000000000000000000000000000000000000000000001"
          ],
          "data": "0x0000000000000000000000001a870c94a199eb623b545b58eb175f72e1dc629e",
          "blockHash": "0x4a9f15a9b041c18f05d1a2694a9f688e609be299f67369d6751b4329198bb968",
          "blockNumber": "0x27e0929",
          "transactionHash": "0xaa283b7a9b6d2934bbb2fe57f514004ce38e0e02eda43bc37dc502503d0186d6",
          "transactionIndex": "0x3",
          "logIndex": "0x1",
          "removed": false
        }
      ],
      "logsBloom": "0x00000000000000000000004000000000008000001000000000000000000000000000000000000000000000000000000000000000000000000000000000040000000000000000000000000000000000000000000000040000000000000000000000000000000000000000000000000000100000000000000000000000000000000000000000000000000000000000000000000000004000000000000000000000000000000000000000000000000000000000000000000000000000000000000000000000000000000000000000000000000000000000000000000000000040000000000000000000000000000000000000000000000000000000000800000000",
      "type": "0x0",
      "transactionHash": "0xaa283b7a9b6d2934bbb2fe57f514004ce38e0e02eda43bc37dc502503d0186d6",
      "transactionIndex": "0x3",
      "blockHash": "0x4a9f15a9b041c18f05d1a2694a9f688e609be299f67369d6751b4329198bb968",
      "blockNumber": "0x27e0929",
      "gasUsed": "0x2905c",
      "effectiveGasPrice": "0x12a05f200",
      "from": "0x1a870c94a199eb623b545b58eb175f72e1dc629e",
      "to": "0x103dab21201672cdec9ed25546d1c140ef3bfe11",
      "contractAddress": null
    },
    {
      "status": "0x1",
      "cumulativeGasUsed": "0x687e2",
      "logs": [
        {
          "address": "0x103dab21201672cdec9ed25546d1c140ef3bfe11",
          "topics": [
            "0x57e19e2aa06e728bbca970637be628efcda39018466d09026b4d04232479acb8",
            "0x0000000000000000000000000000000000000000000000000000000000000001"
          ],
          "data": "0x000000000000000000000000385d01dee3758d49a7a9cb2b18d10141bb572348000000000000000000000000000000000000000000000000000009184e72a000",
          "blockHash": "0xd3df3346227edf565a93b9ea17fe839d92248fe75d22c60cb74a700f3f11bbdf",
          "blockNumber": "0x27e092c",
          "transactionHash": "0x0d6dc8c4d63b11fc7c0cbe56335dfc241a0a5f6874b9b80d58ce02fcf2946fff",
          "transactionIndex": "0x3",
          "logIndex": "0x7",
          "removed": false
        }
      ],
      "logsBloom": "0x00000000000000000000004000000000000000000000000000000000000000000000000000000000000000000000000000000000000000000000000000040000000000000000000000000000000000000000000000040000000000000000000000000000000000000000000000000000000000000000000000000100000000000000000000000000000000000000000000000000004000000000000000000000000000000000000000000000000000000000000000000004000000000000000000000000000010000000000000000000000000000000000000000000000040000000000000000000000000000000000000000000000000000000000800000000",
      "type": "0x0",
      "transactionHash": "0x0d6dc8c4d63b11fc7c0cbe56335dfc241a0a5f6874b9b80d58ce02fcf2946fff",
      "transactionIndex": "0x3",
      "blockHash": "0xd3df3346227edf565a93b9ea17fe839d92248fe75d22c60cb74a700f3f11bbdf",
      "blockNumber": "0x27e092c",
      "gasUsed": "0x12b76",
      "effectiveGasPrice": "0x12a05f200",
      "from": "0x385d01dee3758d49a7a9cb2b18d10141bb572348",
      "to": "0x103dab21201672cdec9ed25546d1c140ef3bfe11",
      "contractAddress": null
    },
    {
      "status": "0x1",
      "cumulativeGasUsed": "0x30367",
      "logs": [
        {
          "address": "0x103dab21201672cdec9ed25546d1c140ef3bfe11",
          "topics": [
            "0x414d6a76d6a104efa26174057b560f7351b16d60f3e31756f01e67f9b264e5b9",
            "0x0000000000000000000000000000000000000000000000000000000000000001"
          ],
          "data": "0x0000000000000000000000001a870c94a199eb623b545b58eb175f72e1dc629e000000000000000000000000000000000000000000000000000008a3e4201800",
          "blockHash": "0x800aa7b3f1df1299992bdce18bdfc18c1a342bd26e6552c93fc06cde9970f733",
          "blockNumber": "0x27e092e",
          "transactionHash": "0x57da8a2e5886d025d13ac58f95b6c4adad01e146db9c7ea00ab3274e79663f75",
          "transactionIndex": "0x1",
          "logIndex": "0x2",
          "removed": false
        }
      ],
      "logsBloom": "0x00000000000000000000004000000000000000000000000000000000000000000000000000000000000000040000000000000000000000000000000000040000000000000000000000000000000000000000000000040000000000000000000000000000000000000000000000000000000000000000000000000000000000000000000000000000000000000000000000000000004000000000000000000000000000000000100000000000000000008000000000000000000000000000000000000000000000000000000000000000000000000000000000000000000040000000000000000000000000000000000000000000000000000000000800000000",
      "type": "0x0",
      "transactionHash": "0x57da8a2e5886d025d13ac58f95b6c4adad01e146db9c7ea00ab3274e79663f75",
      "transactionIndex": "0x1",
      "blockHash": "0x800aa7b3f1df1299992bdce18bdfc18c1a342bd26e6552c93fc06cde9970f733",
      "blockNumber": "0x27e092e",
      "gasUsed": "0x139cd",
      "effectiveGasPrice": "0x12a05f200",
      "from": "0x1a870c94a199eb623b545b58eb175f72e1dc629e",
      "to": "0x103dab21201672cdec9ed25546d1c140ef3bfe11",
      "contractAddress": null
    }
  ],
  "libraries": [],
  "pending": [],
  "returns": {},
  "timestamp": 1720161677,
  "chain": 97,
  "commit": "075ce08"
}