{
  "transactions": [
    {
      "hash": "0x7e7dda3c7bf966995f151b05d6528796e9627997d5d9968b113665b94b82eac8",
      "transactionType": "CALL",
      "contractName": null,
      "contractAddress": "0xba573146c34e5daa07d9fd2bb77aa214c30db8af",
      "function": "createProject(string,string,uint256,uint256)",
      "arguments": [
        "\"Title\"",
        "\"Description\"",
        "10000000000000",
        "604800"
      ],
      "transaction": {
        "from": "0x1a870c94a199eb623b545b58eb175f72e1dc629e",
        "to": "0xba573146c34e5daa07d9fd2bb77aa214c30db8af",
        "gas": "0x37b5b",
        "value": "0x0",
        "input": "0x94ba9709000000000000000000000000000000000000000000000000000000000000008000000000000000000000000000000000000000000000000000000000000000c0000000000000000000000000000000000000000000000000000009184e72a0000000000000000000000000000000000000000000000000000000000000093a8000000000000000000000000000000000000000000000000000000000000000055469746c65000000000000000000000000000000000000000000000000000000000000000000000000000000000000000000000000000000000000000000000b4465736372697074696f6e000000000000000000000000000000000000000000",
        "nonce": "0x7",
        "chainId": "0xaa36a7"
      },
      "additionalContracts": [],
      "isFixedGasLimit": false
    },
    {
      "hash": "0x5a41076e67b75d8e0f7cba0a9a2bad4a294491668693cccf248d532eaaaca433",
      "transactionType": "CALL",
      "contractName": null,
      "contractAddress": "0xba573146c34e5daa07d9fd2bb77aa214c30db8af",
      "function": "fundProject(uint256)",
      "arguments": [
        "0"
      ],
      "transaction": {
        "from": "0x385d01dee3758d49a7a9cb2b18d10141bb572348",
        "to": "0xba573146c34e5daa07d9fd2bb77aa214c30db8af",
        "gas": "0x1b5e4",
        "value": "0x9184e72a000",
        "input": "0x6c563abe0000000000000000000000000000000000000000000000000000000000000000",
        "nonce": "0x1",
        "chainId": "0xaa36a7"
      },
      "additionalContracts": [],
      "isFixedGasLimit": false
    },
    {
      "hash": "0x3376c4ed1a13812668e5277c081bef4ae7ae1adaf2351a4ab3c573b606f18125",
      "transactionType": "CALL",
      "contractName": null,
      "contractAddress": "0xba573146c34e5daa07d9fd2bb77aa214c30db8af",
      "function": "withdraw(uint256)",
      "arguments": [
        "0"
      ],
      "transaction": {
        "from": "0x1a870c94a199eb623b545b58eb175f72e1dc629e",
        "to": "0xba573146c34e5daa07d9fd2bb77aa214c30db8af",
        "gas": "0x1b163",
        "value": "0x0",
        "input": "0x2e1a7d4d0000000000000000000000000000000000000000000000000000000000000000",
        "nonce": "0x8",
        "chainId": "0xaa36a7"
      },
      "additionalContracts": [],
      "isFixedGasLimit": false
    }
  ],
  "receipts": [
    {
      "status": "0x1",
      "cumulativeGasUsed": "0x60d818",
      "logs": [
        {
          "address": "0xba573146c34e5daa07d9fd2bb77aa214c30db8af",
          "topics": [
            "0x63c92f9505d420bff631cb9df33be952bdc11e2118da36a850b43e6bcc4ce4de",
            "0x0000000000000000000000000000000000000000000000000000000000000000"
          ],
          "data": "0x0000000000000000000000001a870c94a199eb623b545b58eb175f72e1dc629e",
          "blockHash": "0x33a8bebf84a8ea46473ca0b4d041f77c0556edaccc2e34f095333817fc4d0f53",
          "blockNumber": "0x5f4771",
          "transactionHash": "0x7e7dda3c7bf966995f151b05d6528796e9627997d5d9968b113665b94b82eac8",
          "transactionIndex": "0x1a",
          "logIndex": "0x4a",
          "removed": false
        }
      ],
      "logsBloom": "0x00000000000000000000000000000000008000001000000000000000000000000000000000000000000000000000000000000000000000000000000000000000000000000000000000000000000000000000000000000000000000000000000000000000020000000000000000000800100000000000000000000000000000000000000000000000000000400000000000000000000000000000000000000000000000000000000000000000000000000000000100000000000000000000000000000000000000000000000000000000000000000000000000000000000020000010000000000000000000000000000000000000000000000000000000000000",
      "type": "0x0",
      "transactionHash": "0x7e7dda3c7bf966995f151b05d6528796e9627997d5d9968b113665b94b82eac8",
      "transactionIndex": "0x1a",
      "blockHash": "0x33a8bebf84a8ea46473ca0b4d041f77c0556edaccc2e34f095333817fc4d0f53",
      "blockNumber": "0x5f4771",
      "gasUsed": "0x28554",
      "effectiveGasPrice": "0x5c0d4f291",
      "from": "0x1a870c94a199eb623b545b58eb175f72e1dc629e",
      "to": "0xba573146c34e5daa07d9fd2bb77aa214c30db8af",
      "contractAddress": null
    },
    {
      "status": "0x1",
      "cumulativeGasUsed": "0x106708",
      "logs": [
        {
          "address": "0xba573146c34e5daa07d9fd2bb77aa214c30db8af",
          "topics": [
            "0x57e19e2aa06e728bbca970637be628efcda39018466d09026b4d04232479acb8",
            "0x0000000000000000000000000000000000000000000000000000000000000000"
          ],
          "data": "0x000000000000000000000000385d01dee3758d49a7a9cb2b18d10141bb572348000000000000000000000000000000000000000000000000000009184e72a000",
          "blockHash": "0xe76e399c9cd4f56ba6377e9ac14bdf60db42afcae39676bbc29cc27c249bd925",
          "blockNumber": "0x5f4772",
          "transactionHash": "0x5a41076e67b75d8e0f7cba0a9a2bad4a294491668693cccf248d532eaaaca433",
          "transactionIndex": "0x10",
          "logIndex": "0xd",
          "removed": false
        }
      ],
      "logsBloom": "0x00000000000000000000000000000000000000000000000000000000000000000000000000000000000000000000000000000000000000000000000000000000000000000000000000000000000000000000000000000000000000000000000000000000020000000000000000000800000000000000000000000100000000000000000000000000000000400000000000000000000000000000000000000000000000000000000000000000000000000000000100000004000000000000000000000000000010000000000000000000000000000000000000000000000020000010000000000000000000000000000000000000000000000000000000000000",
      "type": "0x0",
      "transactionHash": "0x5a41076e67b75d8e0f7cba0a9a2bad4a294491668693cccf248d532eaaaca433",
      "transactionIndex": "0x10",
      "blockHash": "0xe76e399c9cd4f56ba6377e9ac14bdf60db42afcae39676bbc29cc27c249bd925",
      "blockNumber": "0x5f4772",
      "gasUsed": "0x12b6a",
      "effectiveGasPrice": "0x5c0d4f291",
      "from": "0x385d01dee3758d49a7a9cb2b18d10141bb572348",
      "to": "0xba573146c34e5daa07d9fd2bb77aa214c30db8af",
      "contractAddress": null
    },
    {
      "status": "0x1",
      "cumulativeGasUsed": "0xb70a0a",
      "logs": [
        {
          "address": "0xba573146c34e5daa07d9fd2bb77aa214c30db8af",
          "topics": [
            "0x414d6a76d6a104efa26174057b560f7351b16d60f3e31756f01e67f9b264e5b9",
            "0x0000000000000000000000000000000000000000000000000000000000000000"
          ],
          "data": "0x0000000000000000000000001a870c94a199eb623b545b58eb175f72e1dc629e000000000000000000000000000000000000000000000000000008a3e4201800",
          "blockHash": "0x7119077f55009507e2617d716654e1f17bd739469f1ef60deb83d17ed70cda04",
          "blockNumber": "0x5f4773",
          "transactionHash": "0x3376c4ed1a13812668e5277c081bef4ae7ae1adaf2351a4ab3c573b606f18125",
          "transactionIndex": "0x12",
          "logIndex": "0x17",
          "removed": false
        }
      ],
      "logsBloom": "0x00000000000000000000000000000000000000000000000000000000000000000000000000000000000000040000000000000000000000000000000000000000000000000000000000000000000000000000000000000000000000000000000000000000020000000000000000000800000000000000000000000000000000000000000000000000000000400000000000000000000000000000000000000000000000000000100000000000000000008000000100000000000000000000000000000000000000000000000000000000000000000000000000000000000020000010000000000000000000000000000000000000000000000000000000000000",
      "type": "0x0",
      "transactionHash": "0x3376c4ed1a13812668e5277c081bef4ae7ae1adaf2351a4ab3c573b606f18125",
      "transactionIndex": "0x12",
      "blockHash": "0x7119077f55009507e2617d716654e1f17bd739469f1ef60deb83d17ed70cda04",
      "blockNumber": "0x5f4773",
      "gasUsed": "0x139c4",
      "effectiveGasPrice": "0x5c0d4f291",
      "from": "0x1a870c94a199eb623b545b58eb175f72e1dc629e",
      "to": "0xba573146c34e5daa07d9fd2bb77aa214c30db8af",
      "contractAddress": null
    }
  ],
  "libraries": [],
  "pending": [],
  "returns": {},
  "timestamp": 1720094030,
  "chain": 11155111,
  "commit": "497d048"
}