{
  "transactions": [
    {
      "hash": "0x39dd3d54c3e07e7bd4ba357f412792cacbbae40776b19a7fe652296f5d63f188",
      "transactionType": "CALL",
      "contractName": null,
      "contractAddress": "0xfdd15a5eb2a31773be8c0481e0dd26aebd8667fb",
      "function": "createProject(string,string,uint256,uint256)",
      "arguments": [
        "\"Title0\"",
        "\"Description0\"",
        "10000000000000",
        "604800"
      ],
      "transaction": {
        "from": "0x1a870c94a199eb623b545b58eb175f72e1dc629e",
        "to": "0xfdd15a5eb2a31773be8c0481e0dd26aebd8667fb",
        "gas": "0x38a97",
        "value": "0x0",
        "input": "0x94ba9709000000000000000000000000000000000000000000000000000000000000008000000000000000000000000000000000000000000000000000000000000000c0000000000000000000000000000000000000000000000000000009184e72a0000000000000000000000000000000000000000000000000000000000000093a8000000000000000000000000000000000000000000000000000000000000000065469746c65300000000000000000000000000000000000000000000000000000000000000000000000000000000000000000000000000000000000000000000c4465736372697074696f6e300000000000000000000000000000000000000000",
        "nonce": "0x15",
        "chainId": "0xaa36a7"
      },
      "additionalContracts": [],
      "isFixedGasLimit": false
    },
    {
      "hash": "0xd8db1fe14ea63b1680b9016be1587938969e3d4e355dc9542b3504232c3b5c56",
      "transactionType": "CALL",
      "contractName": null,
      "contractAddress": "0xfdd15a5eb2a31773be8c0481e0dd26aebd8667fb",
      "function": "fundProject(uint256)",
      "arguments": [
        "2"
      ],
      "transaction": {
        "from": "0x385d01dee3758d49a7a9cb2b18d10141bb572348",
        "to": "0xfdd15a5eb2a31773be8c0481e0dd26aebd8667fb",
        "gas": "0x19da0",
        "value": "0x9184e72a000",
        "input": "0x6c563abe0000000000000000000000000000000000000000000000000000000000000002",
        "nonce": "0x8",
        "chainId": "0xaa36a7"
      },
      "additionalContracts": [],
      "isFixedGasLimit": false
    },
    {
      "hash": "0x70d7b0f3fc1edf9037fb88dd57853a115b3f5b4d8bf757f5c3847a17462cd135",
      "transactionType": "CALL",
      "contractName": null,
      "contractAddress": "0xfdd15a5eb2a31773be8c0481e0dd26aebd8667fb",
      "function": "withdraw(uint256)",
      "arguments": [
        "2"
      ],
      "transaction": {
        "from": "0x1a870c94a199eb623b545b58eb175f72e1dc629e",
        "to": "0xfdd15a5eb2a31773be8c0481e0dd26aebd8667fb",
        "gas": "0x1b16e",
        "value": "0x0",
        "input": "0x2e1a7d4d0000000000000000000000000000000000000000000000000000000000000002",
        "nonce": "0x16",
        "chainId": "0xaa36a7"
      },
      "additionalContracts": [],
      "isFixedGasLimit": false
    },
    {
      "hash": "0xc63e50e6e3b3320e9232214d25041f70e15447af083425f92277de76c50cb01d",
      "transactionType": "CALL",
      "contractName": null,
      "contractAddress": "0xfdd15a5eb2a31773be8c0481e0dd26aebd8667fb",
      "function": "createProject(string,string,uint256,uint256)",
      "arguments": [
        "\"Title1\"",
        "\"Description1\"",
        "10000000000000",
        "604800"
      ],
      "transaction": {
        "from": "0x1a870c94a199eb623b545b58eb175f72e1dc629e",
        "to": "0xfdd15a5eb2a31773be8c0481e0dd26aebd8667fb",
        "gas": "0x38a97",
        "value": "0x0",
        "input": "0x94ba9709000000000000000000000000000000000000000000000000000000000000008000000000000000000000000000000000000000000000000000000000000000c0000000000000000000000000000000000000000000000000000009184e72a0000000000000000000000000000000000000000000000000000000000000093a8000000000000000000000000000000000000000000000000000000000000000065469746c65310000000000000000000000000000000000000000000000000000000000000000000000000000000000000000000000000000000000000000000c4465736372697074696f6e310000000000000000000000000000000000000000",
        "nonce": "0x17",
        "chainId": "0xaa36a7"
      },
      "additionalContracts": [],
      "isFixedGasLimit": false
    },
    {
      "hash": "0xb7088e2de5daf4786e150aa56532917b410a187adc616dca6cfa21e59448a117",
      "transactionType": "CALL",
      "contractName": null,
      "contractAddress": "0xfdd15a5eb2a31773be8c0481e0dd26aebd8667fb",
      "function": "fundProject(uint256)",
      "arguments": [
        "3"
      ],
      "transaction": {
        "from": "0x385d01dee3758d49a7a9cb2b18d10141bb572348",
        "to": "0xfdd15a5eb2a31773be8c0481e0dd26aebd8667fb",
        "gas": "0x19da0",
        "value": "0x9184e72a000",
        "input": "0x6c563abe0000000000000000000000000000000000000000000000000000000000000003",
        "nonce": "0x9",
        "chainId": "0xaa36a7"
      },
      "additionalContracts": [],
      "isFixedGasLimit": false
    },
    {
      "hash": "0x3d10c934ff56a0597a8334c0f2bce3a005fe1600a16daf6ef24f945e950bdb78",
      "transactionType": "CALL",
      "contractName": null,
      "contractAddress": "0xfdd15a5eb2a31773be8c0481e0dd26aebd8667fb",
      "function": "withdraw(uint256)",
      "arguments": [
        "3"
      ],
      "transaction": {
        "from": "0x1a870c94a199eb623b545b58eb175f72e1dc629e",
        "to": "0xfdd15a5eb2a31773be8c0481e0dd26aebd8667fb",
        "gas": "0x1b16e",
        "value": "0x0",
        "input": "0x2e1a7d4d0000000000000000000000000000000000000000000000000000000000000003",
        "nonce": "0x18",
        "chainId": "0xaa36a7"
      },
      "additionalContracts": [],
      "isFixedGasLimit": false
    }
  ],
  "receipts": [
    {
      "status": "0x1",
      "cumulativeGasUsed": "0x309c91",
      "logs": [
        {
          "address": "0xfdd15a5eb2a31773be8c0481e0dd26aebd8667fb",
          "topics": [
            "0x63c92f9505d420bff631cb9df33be952bdc11e2118da36a850b43e6bcc4ce4de",
            "0x0000000000000000000000000000000000000000000000000000000000000002"
          ],
          "data": "0x0000000000000000000000001a870c94a199eb623b545b58eb175f72e1dc629e",
          "blockHash": "0x7ba0dfbdcefdfb7ce92756c013a4af44c8409e861fba758d9d2f7954a9efed01",
          "blockNumber": "0x5f5bb2",
          "transactionHash": "0x39dd3d54c3e07e7bd4ba357f412792cacbbae40776b19a7fe652296f5d63f188",
          "transactionIndex": "0xf",
          "logIndex": "0x2c",
          "removed": false
        }
      ],
      "logsBloom": "0x04000000000000000000000000000000008000001000000000000000000000000000000000000000000000000000000000000000000000000000000000000000000000000000000000000000000000000000000000000000000000000000000000000000000000000000000000000000100000000000000000000000000000000000000000000000000000000000000000000000020000000000000000000000000001000000000000000100000000000000002000000000000000000000000000000000000000000000000000000000000000000000000000000000000000000000000000000000000000000000000000000000008000000000000000000000",
      "type": "0x0",
      "transactionHash": "0x39dd3d54c3e07e7bd4ba357f412792cacbbae40776b19a7fe652296f5d63f188",
      "transactionIndex": "0xf",
      "blockHash": "0x7ba0dfbdcefdfb7ce92756c013a4af44c8409e861fba758d9d2f7954a9efed01",
      "blockNumber": "0x5f5bb2",
      "gasUsed": "0x2905c",
      "effectiveGasPrice": "0x89b46a289",
      "from": "0x1a870c94a199eb623b545b58eb175f72e1dc629e",
      "to": "0xfdd15a5eb2a31773be8c0481e0dd26aebd8667fb",
      "contractAddress": null
    },
    {
      "status": "0x1",
      "cumulativeGasUsed": "0x15d4b4",
      "logs": [
        {
          "address": "0xfdd15a5eb2a31773be8c0481e0dd26aebd8667fb",
          "topics": [
            "0x57e19e2aa06e728bbca970637be628efcda39018466d09026b4d04232479acb8",
            "0x0000000000000000000000000000000000000000000000000000000000000002"
          ],
          "data": "0x000000000000000000000000385d01dee3758d49a7a9cb2b18d10141bb572348000000000000000000000000000000000000000000000000000009184e72a000",
          "blockHash": "0x4bb317750351e08fc5c22de76c84a0dcdac339b219cd3ba6f9063426a19e82c0",
          "blockNumber": "0x5f5bb3",
          "transactionHash": "0xd8db1fe14ea63b1680b9016be1587938969e3d4e355dc9542b3504232c3b5c56",
          "transactionIndex": "0xa",
          "logIndex": "0x1a",
          "removed": false
        }
      ],
      "logsBloom": "0x04000000000000000000000000000000000000000000000000000000000000000000000000000000000000000000000000000000000000000000000000000000000000000000000000000000000000000000000000000000000000000000000000000000000000000000000000000000000000000000000000000100000000000000000000000000000000000000000000000000020000000000000000000000000001000000000000000100000000000000002000000004000000000000000000000000000010000000000000000000000000000000000000000000000000000000000000000000000000000000000000000000008000000000000000000000",
      "type": "0x0",
      "transactionHash": "0xd8db1fe14ea63b1680b9016be1587938969e3d4e355dc9542b3504232c3b5c56",
      "transactionIndex": "0xa",
      "blockHash": "0x4bb317750351e08fc5c22de76c84a0dcdac339b219cd3ba6f9063426a19e82c0",
      "blockNumber": "0x5f5bb3",
      "gasUsed": "0x12b76",
      "effectiveGasPrice": "0x89b46a289",
      "from": "0x385d01dee3758d49a7a9cb2b18d10141bb572348",
      "to": "0xfdd15a5eb2a31773be8c0481e0dd26aebd8667fb",
      "contractAddress": null
    },
    {
      "status": "0x1",
      "cumulativeGasUsed": "0xdd85f",
      "logs": [
        {
          "address": "0xfdd15a5eb2a31773be8c0481e0dd26aebd8667fb",
          "topics": [
            "0x414d6a76d6a104efa26174057b560f7351b16d60f3e31756f01e67f9b264e5b9",
            "0x0000000000000000000000000000000000000000000000000000000000000002"
          ],
          "data": "0x0000000000000000000000001a870c94a199eb623b545b58eb175f72e1dc629e000000000000000000000000000000000000000000000000000008a3e4201800",
          "blockHash": "0xea8ed3c59932206d7cefab8659daa820b433c0ca74cf7f625f0f13a489acb4d9",
          "blockNumber": "0x5f5bb4",
          "transactionHash": "0x70d7b0f3fc1edf9037fb88dd57853a115b3f5b4d8bf757f5c3847a17462cd135",
          "transactionIndex": "0xd",
          "logIndex": "0xa",
          "removed": false
        }
      ],
      "logsBloom": "0x04000000000000000000000000000000000000000000000000000000000000000000000000000000000000040000000000000000000000000000000000000000000000000000000000000000000000000000000000000000000000000000000000000000000000000000000000000000000000000000000000000000000000000000000000000000000000000000000000000000020000000000000000000000000001000000100000000100000000008000002000000000000000000000000000000000000000000000000000000000000000000000000000000000000000000000000000000000000000000000000000000000008000000000000000000000",
      "type": "0x0",
      "transactionHash": "0x70d7b0f3fc1edf9037fb88dd57853a115b3f5b4d8bf757f5c3847a17462cd135",
      "transactionIndex": "0xd",
      "blockHash": "0xea8ed3c59932206d7cefab8659daa820b433c0ca74cf7f625f0f13a489acb4d9",
      "blockNumber": "0x5f5bb4",
      "gasUsed": "0x139cd",
      "effectiveGasPrice": "0x89b46a289",
      "from": "0x1a870c94a199eb623b545b58eb175f72e1dc629e",
      "to": "0xfdd15a5eb2a31773be8c0481e0dd26aebd8667fb",
      "contractAddress": null
    },
    {
      "status": "0x1",
      "cumulativeGasUsed": "0xdf815",
      "logs": [
        {
          "address": "0xfdd15a5eb2a31773be8c0481e0dd26aebd8667fb",
          "topics": [
            "0x63c92f9505d420bff631cb9df33be952bdc11e2118da36a850b43e6bcc4ce4de",
            "0x0000000000000000000000000000000000000000000000000000000000000003"
          ],
          "data": "0x0000000000000000000000001a870c94a199eb623b545b58eb175f72e1dc629e",
          "blockHash": "0xe2da53e9eb20e31b23eed307e73baffcf864c4fcb26d5cc329941d0a5ae00787",
          "blockNumber": "0x5f5bb5",
          "transactionHash": "0xc63e50e6e3b3320e9232214d25041f70e15447af083425f92277de76c50cb01d",
          "transactionIndex": "0x9",
          "logIndex": "0xc",
          "removed": false
        }
      ],
      "logsBloom": "0x00000000000000000000000000000000008000001000000000000000000000000000000000000000000000000000000000000000020000000000000000000000000000000000000000000000000000000000000000000000000000000000000000000000000000000000000000000000100000000000000000000000000000000000000000000000000000000000000000000000020000000000000000000000000001000000000000000000000000000000002000800000000000000000400000000000000000000000000000000000000000000000000000000000000000000000000000000000000000000000000000000000000000000000000000000000",
      "type": "0x0",
      "transactionHash": "0xc63e50e6e3b3320e9232214d25041f70e15447af083425f92277de76c50cb01d",
      "transactionIndex": "0x9",
      "blockHash": "0xe2da53e9eb20e31b23eed307e73baffcf864c4fcb26d5cc329941d0a5ae00787",
      "blockNumber": "0x5f5bb5",
      "gasUsed": "0x2905c",
      "effectiveGasPrice": "0x89b46a289",
      "from": "0x1a870c94a199eb623b545b58eb175f72e1dc629e",
      "to": "0xfdd15a5eb2a31773be8c0481e0dd26aebd8667fb",
      "contractAddress": null
    },
    {
      "status": "0x1",
      "cumulativeGasUsed": "0x4084a",
      "logs": [
        {
          "address": "0xfdd15a5eb2a31773be8c0481e0dd26aebd8667fb",
          "topics": [
            "0x57e19e2aa06e728bbca970637be628efcda39018466d09026b4d04232479acb8",
            "0x0000000000000000000000000000000000000000000000000000000000000003"
          ],
          "data": "0x000000000000000000000000385d01dee3758d49a7a9cb2b18d10141bb572348000000000000000000000000000000000000000000000000000009184e72a000",
          "blockHash": "0xc36e1fa8424bd7bd1ba873f09681605de438a24513e8f2c6feec833b7a282483",
          "blockNumber": "0x5f5bb6",
          "transactionHash": "0xb7088e2de5daf4786e150aa56532917b410a187adc616dca6cfa21e59448a117",
          "transactionIndex": "0x4",
          "logIndex": "0x2",
          "removed": false
        }
      ],
      "logsBloom": "0x00000000000000000000000000000000000000000000000000000000000000000000000000000000000000000000000000000000020000000000000000000000000000000000000000000000000000000000000000000000000000000000000000000000000000000000000000000000000000000000000000000100000000000000000000000000000000000000000000000000020000000000000000000000000001000000000000000000000000000000002000800004000000000000400000000000000010000000000000000000000000000000000000000000000000000000000000000000000000000000000000000000000000000000000000000000",
      "type": "0x0",
      "transactionHash": "0xb7088e2de5daf4786e150aa56532917b410a187adc616dca6cfa21e59448a117",
      "transactionIndex": "0x4",
      "blockHash": "0xc36e1fa8424bd7bd1ba873f09681605de438a24513e8f2c6feec833b7a282483",
      "blockNumber": "0x5f5bb6",
      "gasUsed": "0x12b76",
      "effectiveGasPrice": "0x89b46a289",
      "from": "0x385d01dee3758d49a7a9cb2b18d10141bb572348",
      "to": "0xfdd15a5eb2a31773be8c0481e0dd26aebd8667fb",
      "contractAddress": null
    },
    {
      "status": "0x1",
      "cumulativeGasUsed": "0xca1b0",
      "logs": [
        {
          "address": "0xfdd15a5eb2a31773be8c0481e0dd26aebd8667fb",
          "topics": [
            "0x414d6a76d6a104efa26174057b560f7351b16d60f3e31756f01e67f9b264e5b9",
            "0x0000000000000000000000000000000000000000000000000000000000000003"
          ],
          "data": "0x0000000000000000000000001a870c94a199eb623b545b58eb175f72e1dc629e000000000000000000000000000000000000000000000000000008a3e4201800",
          "blockHash": "0xa3aa323011408e60b62bf5e8213bc53fabd48ee35b29c8c69150c24b945c3960",
          "blockNumber": "0x5f5bb7",
          "transactionHash": "0x3d10c934ff56a0597a8334c0f2bce3a005fe1600a16daf6ef24f945e950bdb78",
          "transactionIndex": "0x7",
          "logIndex": "0x1",
          "removed": false
        }
      ],
      "logsBloom": "0x00000000000000000000000000000000000000000000000000000000000000000000000000000000000000040000000000000000020000000000000000000000000000000000000000000000000000000000000000000000000000000000000000000000000000000000000000000000000000000000000000000000000000000000000000000000000000000000000000000000020000000000000000000000000001000000100000000000000000008000002000800000000000000000400000000000000000000000000000000000000000000000000000000000000000000000000000000000000000000000000000000000000000000000000000000000",
      "type": "0x0",
      "transactionHash": "0x3d10c934ff56a0597a8334c0f2bce3a005fe1600a16daf6ef24f945e950bdb78",
      "transactionIndex": "0x7",
      "blockHash": "0xa3aa323011408e60b62bf5e8213bc53fabd48ee35b29c8c69150c24b945c3960",
      "blockNumber": "0x5f5bb7",
      "gasUsed": "0x139cd",
      "effectiveGasPrice": "0x89b46a289",
      "from": "0x1a870c94a199eb623b545b58eb175f72e1dc629e",
      "to": "0xfdd15a5eb2a31773be8c0481e0dd26aebd8667fb",
      "contractAddress": null
    }
  ],
  "libraries": [],
  "pending": [],
  "returns": {},
  "timestamp": 1720163761,
  "chain": 11155111,
  "commit": "075ce08"
}