{
  "transactions": [
    {
      "hash": "0xbb0fcb5309e18c15030adbed393122bd952a1ac6662a4ebd2e4486ace55c9160",
      "transactionType": "CALL",
      "contractName": null,
      "contractAddress": "0xba573146c34e5daa07d9fd2bb77aa214c30db8af",
      "function": "createProject(string,string,uint256,uint256)",
      "arguments": [
        "\"Title0\"",
        "\"Description0\"",
        "10000000000000",
        "604800"
      ],
      "transaction": {
        "from": "0x1a870c94a199eb623b545b58eb175f72e1dc629e",
        "to": "0xba573146c34e5daa07d9fd2bb77aa214c30db8af",
        "gas": "0x38a97",
        "value": "0x0",
        "input": "0x94ba9709000000000000000000000000000000000000000000000000000000000000008000000000000000000000000000000000000000000000000000000000000000c0000000000000000000000000000000000000000000000000000009184e72a0000000000000000000000000000000000000000000000000000000000000093a8000000000000000000000000000000000000000000000000000000000000000065469746c65300000000000000000000000000000000000000000000000000000000000000000000000000000000000000000000000000000000000000000000c4465736372697074696f6e300000000000000000000000000000000000000000",
        "nonce": "0x9",
        "chainId": "0xaa36a7"
      },
      "additionalContracts": [],
      "isFixedGasLimit": false
    },
    {
      "hash": "0x506d5b7f485ff6e9db6f20373163b1936a2721943833d6e7e8921375d3209d3a",
      "transactionType": "CALL",
      "contractName": null,
      "contractAddress": "0xba573146c34e5daa07d9fd2bb77aa214c30db8af",
      "function": "fundProject(uint256)",
      "arguments": [
        "1"
      ],
      "transaction": {
        "from": "0x385d01dee3758d49a7a9cb2b18d10141bb572348",
        "to": "0xba573146c34e5daa07d9fd2bb77aa214c30db8af",
        "gas": "0x19da0",
        "value": "0x9184e72a000",
        "input": "0x6c563abe0000000000000000000000000000000000000000000000000000000000000001",
        "nonce": "0x2",
        "chainId": "0xaa36a7"
      },
      "additionalContracts": [],
      "isFixedGasLimit": false
    },
    {
      "hash": "0xdfe65795bb85be795e2da087e20e7183643a31e3115940bbeb1147befe2fba15",
      "transactionType": "CALL",
      "contractName": null,
      "contractAddress": "0xba573146c34e5daa07d9fd2bb77aa214c30db8af",
      "function": "withdraw(uint256)",
      "arguments": [
        "1"
      ],
      "transaction": {
        "from": "0x1a870c94a199eb623b545b58eb175f72e1dc629e",
        "to": "0xba573146c34e5daa07d9fd2bb77aa214c30db8af",
        "gas": "0x1b16e",
        "value": "0x0",
        "input": "0x2e1a7d4d0000000000000000000000000000000000000000000000000000000000000001",
        "nonce": "0xa",
        "chainId": "0xaa36a7"
      },
      "additionalContracts": [],
      "isFixedGasLimit": false
    },
    {
      "hash": "0xbbb0125f49f648e27b5d62bc1679b0a73eec06647539a71fe48ee752d1f0581d",
      "transactionType": "CALL",
      "contractName": null,
      "contractAddress": "0xba573146c34e5daa07d9fd2bb77aa214c30db8af",
      "function": "createProject(string,string,uint256,uint256)",
      "arguments": [
        "\"Title1\"",
        "\"Description1\"",
        "10000000000000",
        "604800"
      ],
      "transaction": {
        "from": "0x1a870c94a199eb623b545b58eb175f72e1dc629e",
        "to": "0xba573146c34e5daa07d9fd2bb77aa214c30db8af",
        "gas": "0x38a97",
        "value": "0x0",
        "input": "0x94ba9709000000000000000000000000000000000000000000000000000000000000008000000000000000000000000000000000000000000000000000000000000000c0000000000000000000000000000000000000000000000000000009184e72a0000000000000000000000000000000000000000000000000000000000000093a8000000000000000000000000000000000000000000000000000000000000000065469746c65310000000000000000000000000000000000000000000000000000000000000000000000000000000000000000000000000000000000000000000c4465736372697074696f6e310000000000000000000000000000000000000000",
        "nonce": "0xb",
        "chainId": "0xaa36a7"
      },
      "additionalContracts": [],
      "isFixedGasLimit": false
    },
    {
      "hash": "0x18db40210d11aa679d5dc505091f4749e404e0c1b6744280aa9651b98c50e06a",
      "transactionType": "CALL",
      "contractName": null,
      "contractAddress": "0xba573146c34e5daa07d9fd2bb77aa214c30db8af",
      "function": "fundProject(uint256)",
      "arguments": [
        "2"
      ],
      "transaction": {
        "from": "0x385d01dee3758d49a7a9cb2b18d10141bb572348",
        "to": "0xba573146c34e5daa07d9fd2bb77aa214c30db8af",
        "gas": "0x19da0",
        "value": "0x9184e72a000",
        "input": "0x6c563abe0000000000000000000000000000000000000000000000000000000000000002",
        "nonce": "0x3",
        "chainId": "0xaa36a7"
      },
      "additionalContracts": [],
      "isFixedGasLimit": false
    },
    {
      "hash": "0xcc91427b66f727b487bd9f1ec0d3cee8b677cca5dbf6b415dc4cd93235e5672f",
      "transactionType": "CALL",
      "contractName": null,
      "contractAddress": "0xba573146c34e5daa07d9fd2bb77aa214c30db8af",
      "function": "withdraw(uint256)",
      "arguments": [
        "2"
      ],
      "transaction": {
        "from": "0x1a870c94a199eb623b545b58eb175f72e1dc629e",
        "to": "0xba573146c34e5daa07d9fd2bb77aa214c30db8af",
        "gas": "0x1b16e",
        "value": "0x0",
        "input": "0x2e1a7d4d0000000000000000000000000000000000000000000000000000000000000002",
        "nonce": "0xc",
        "chainId": "0xaa36a7"
      },
      "additionalContracts": [],
      "isFixedGasLimit": false
    },
    {
      "hash": "0xf78c2ae06573f44420583a52858c697ef5f322ff6e336d896d20467936a20a66",
      "transactionType": "CALL",
      "contractName": null,
      "contractAddress": "0xba573146c34e5daa07d9fd2bb77aa214c30db8af",
      "function": "createProject(string,string,uint256,uint256)",
      "arguments": [
        "\"Title2\"",
        "\"Description2\"",
        "10000000000000",
        "604800"
      ],
      "transaction": {
        "from": "0x1a870c94a199eb623b545b58eb175f72e1dc629e",
        "to": "0xba573146c34e5daa07d9fd2bb77aa214c30db8af",
        "gas": "0x38a97",
        "value": "0x0",
        "input": "0x94ba9709000000000000000000000000000000000000000000000000000000000000008000000000000000000000000000000000000000000000000000000000000000c0000000000000000000000000000000000000000000000000000009184e72a0000000000000000000000000000000000000000000000000000000000000093a8000000000000000000000000000000000000000000000000000000000000000065469746c65320000000000000000000000000000000000000000000000000000000000000000000000000000000000000000000000000000000000000000000c4465736372697074696f6e320000000000000000000000000000000000000000",
        "nonce": "0xd",
        "chainId": "0xaa36a7"
      },
      "additionalContracts": [],
      "isFixedGasLimit": false
    },
    {
      "hash": "0xd45585290fed7ccf10fdfa147d7d1ea89d6900cc2067a979ac0450b05160460b",
      "transactionType": "CALL",
      "contractName": null,
      "contractAddress": "0xba573146c34e5daa07d9fd2bb77aa214c30db8af",
      "function": "fundProject(uint256)",
      "arguments": [
        "3"
      ],
      "transaction": {
        "from": "0x385d01dee3758d49a7a9cb2b18d10141bb572348",
        "to": "0xba573146c34e5daa07d9fd2bb77aa214c30db8af",
        "gas": "0x19da0",
        "value": "0x9184e72a000",
        "input": "0x6c563abe0000000000000000000000000000000000000000000000000000000000000003",
        "nonce": "0x4",
        "chainId": "0xaa36a7"
      },
      "additionalContracts": [],
      "isFixedGasLimit": false
    },
    {
      "hash": "0xd696d3a82375976c202dfc9df9970eb145f22992199fcfeaf3ad0fbfb2eef623",
      "transactionType": "CALL",
      "contractName": null,
      "contractAddress": "0xba573146c34e5daa07d9fd2bb77aa214c30db8af",
      "function": "withdraw(uint256)",
      "arguments": [
        "3"
      ],
      "transaction": {
        "from": "0x1a870c94a199eb623b545b58eb175f72e1dc629e",
        "to": "0xba573146c34e5daa07d9fd2bb77aa214c30db8af",
        "gas": "0x1b16e",
        "value": "0x0",
        "input": "0x2e1a7d4d0000000000000000000000000000000000000000000000000000000000000003",
        "nonce": "0xe",
        "chainId": "0xaa36a7"
      },
      "additionalContracts": [],
      "isFixedGasLimit": false
    },
    {
      "hash": "0x6d0b6d0b891004076a72c34dea818ff3213a7c333cda38a1c3980fa35ec27ddb",
      "transactionType": "CALL",
      "contractName": null,
      "contractAddress": "0xba573146c34e5daa07d9fd2bb77aa214c30db8af",
      "function": "createProject(string,string,uint256,uint256)",
      "arguments": [
        "\"Title3\"",
        "\"Description3\"",
        "10000000000000",
        "604800"
      ],
      "transaction": {
        "from": "0x1a870c94a199eb623b545b58eb175f72e1dc629e",
        "to": "0xba573146c34e5daa07d9fd2bb77aa214c30db8af",
        "gas": "0x38a97",
        "value": "0x0",
        "input": "0x94ba9709000000000000000000000000000000000000000000000000000000000000008000000000000000000000000000000000000000000000000000000000000000c0000000000000000000000000000000000000000000000000000009184e72a0000000000000000000000000000000000000000000000000000000000000093a8000000000000000000000000000000000000000000000000000000000000000065469746c65330000000000000000000000000000000000000000000000000000000000000000000000000000000000000000000000000000000000000000000c4465736372697074696f6e330000000000000000000000000000000000000000",
        "nonce": "0xf",
        "chainId": "0xaa36a7"
      },
      "additionalContracts": [],
      "isFixedGasLimit": false
    },
    {
      "hash": "0xd8d9067d64c4ff7a1bfca81cec6ebcf4096569f49176a27af4169ff46d9e093a",
      "transactionType": "CALL",
      "contractName": null,
      "contractAddress": "0xba573146c34e5daa07d9fd2bb77aa214c30db8af",
      "function": "fundProject(uint256)",
      "arguments": [
        "4"
      ],
      "transaction": {
        "from": "0x385d01dee3758d49a7a9cb2b18d10141bb572348",
        "to": "0xba573146c34e5daa07d9fd2bb77aa214c30db8af",
        "gas": "0x19da0",
        "value": "0x9184e72a000",
        "input": "0x6c563abe0000000000000000000000000000000000000000000000000000000000000004",
        "nonce": "0x5",
        "chainId": "0xaa36a7"
      },
      "additionalContracts": [],
      "isFixedGasLimit": false
    },
    {
      "hash": "0x7eb0efaadc202669e43fa2cc6abb54d30c96d264136a6d600dbf589d801ada07",
      "transactionType": "CALL",
      "contractName": null,
      "contractAddress": "0xba573146c34e5daa07d9fd2bb77aa214c30db8af",
      "function": "withdraw(uint256)",
      "arguments": [
        "4"
      ],
      "transaction": {
        "from": "0x1a870c94a199eb623b545b58eb175f72e1dc629e",
        "to": "0xba573146c34e5daa07d9fd2bb77aa214c30db8af",
        "gas": "0x1b16e",
        "value": "0x0",
        "input": "0x2e1a7d4d0000000000000000000000000000000000000000000000000000000000000004",
        "nonce": "0x10",
        "chainId": "0xaa36a7"
      },
      "additionalContracts": [],
      "isFixedGasLimit": false
    },
    {
      "hash": "0xd117f8c3d7bb20b7f55c71d6d17e5db5199ccd8943dd6d5de11ed9df82dde8f9",
      "transactionType": "CALL",
      "contractName": null,
      "contractAddress": "0xba573146c34e5daa07d9fd2bb77aa214c30db8af",
      "function": "createProject(string,string,uint256,uint256)",
      "arguments": [
        "\"Title4\"",
        "\"Description4\"",
        "10000000000000",
        "604800"
      ],
      "transaction": {
        "from": "0x1a870c94a199eb623b545b58eb175f72e1dc629e",
        "to": "0xba573146c34e5daa07d9fd2bb77aa214c30db8af",
        "gas": "0x38a97",
        "value": "0x0",
        "input": "0x94ba9709000000000000000000000000000000000000000000000000000000000000008000000000000000000000000000000000000000000000000000000000000000c0000000000000000000000000000000000000000000000000000009184e72a0000000000000000000000000000000000000000000000000000000000000093a8000000000000000000000000000000000000000000000000000000000000000065469746c65340000000000000000000000000000000000000000000000000000000000000000000000000000000000000000000000000000000000000000000c4465736372697074696f6e340000000000000000000000000000000000000000",
        "nonce": "0x11",
        "chainId": "0xaa36a7"
      },
      "additionalContracts": [],
      "isFixedGasLimit": false
    },
    {
      "hash": "0x1808c850a178752a3f7c463809eecf5b68e754d8b7aead583d2ddab375162c26",
      "transactionType": "CALL",
      "contractName": null,
      "contractAddress": "0xba573146c34e5daa07d9fd2bb77aa214c30db8af",
      "function": "fundProject(uint256)",
      "arguments": [
        "5"
      ],
      "transaction": {
        "from": "0x385d01dee3758d49a7a9cb2b18d10141bb572348",
        "to": "0xba573146c34e5daa07d9fd2bb77aa214c30db8af",
        "gas": "0x19da0",
        "value": "0x9184e72a000",
        "input": "0x6c563abe0000000000000000000000000000000000000000000000000000000000000005",
        "nonce": "0x6",
        "chainId": "0xaa36a7"
      },
      "additionalContracts": [],
      "isFixedGasLimit": false
    },
    {
      "hash": "0x5ef169f285cfca49fb4ed1f75d738a153d47cbc2681b306034eaa9aa75592290",
      "transactionType": "CALL",
      "contractName": null,
      "contractAddress": "0xba573146c34e5daa07d9fd2bb77aa214c30db8af",
      "function": "withdraw(uint256)",
      "arguments": [
        "5"
      ],
      "transaction": {
        "from": "0x1a870c94a199eb623b545b58eb175f72e1dc629e",
        "to": "0xba573146c34e5daa07d9fd2bb77aa214c30db8af",
        "gas": "0x1b16e",
        "value": "0x0",
        "input": "0x2e1a7d4d0000000000000000000000000000000000000000000000000000000000000005",
        "nonce": "0x12",
        "chainId": "0xaa36a7"
      },
      "additionalContracts": [],
      "isFixedGasLimit": false
    }
  ],
  "receipts": [
    {
      "status": "0x1",
      "cumulativeGasUsed": "0x2d8f97",
      "logs": [
        {
          "address": "0xba573146c34e5daa07d9fd2bb77aa214c30db8af",
          "topics": [
            "0x63c92f9505d420bff631cb9df33be952bdc11e2118da36a850b43e6bcc4ce4de",
            "0x0000000000000000000000000000000000000000000000000000000000000001"
          ],
          "data": "0x0000000000000000000000001a870c94a199eb623b545b58eb175f72e1dc629e",
          "blockHash": "0x7fd7f8a0c827396757134022e756161fd165b5de3919e0cee08bbbf14d952850",
          "blockNumber": "0x5f4796",
          "transactionHash": "0xbb0fcb5309e18c15030adbed393122bd952a1ac6662a4ebd2e4486ace55c9160",
          "transactionIndex": "0x15",
          "logIndex": "0x34",
          "removed": false
        }
      ],
      "logsBloom": "0x00000000000000000000000000000000008000001000000000000000000000000000000000000000000000000000000000000000000000000000000000040000000000000000000000000000000000000000000000040000000000000000000000000000000000000000000000000000100000000000000000000000000000000000000000000000000000400000000000000000000000000000000000000000000000000000000000000000000000000000000100000000000000000000000000000000000000000000000000000000000000000000000000000000000040000010000000000000000000000000000000000000000000000000000000000000",
      "type": "0x0",
      "transactionHash": "0xbb0fcb5309e18c15030adbed393122bd952a1ac6662a4ebd2e4486ace55c9160",
      "transactionIndex": "0x15",
      "blockHash": "0x7fd7f8a0c827396757134022e756161fd165b5de3919e0cee08bbbf14d952850",
      "blockNumber": "0x5f4796",
      "gasUsed": "0x2905c",
      "effectiveGasPrice": "0x834986d1e",
      "from": "0x1a870c94a199eb623b545b58eb175f72e1dc629e",
      "to": "0xba573146c34e5daa07d9fd2bb77aa214c30db8af",
      "contractAddress": null
    },
    {
      "status": "0x1",
      "cumulativeGasUsed": "0x2ca67c",
      "logs": [
        {
          "address": "0xba573146c34e5daa07d9fd2bb77aa214c30db8af",
          "topics": [
            "0x57e19e2aa06e728bbca970637be628efcda39018466d09026b4d04232479acb8",
            "0x0000000000000000000000000000000000000000000000000000000000000001"
          ],
          "data": "0x000000000000000000000000385d01dee3758d49a7a9cb2b18d10141bb572348000000000000000000000000000000000000000000000000000009184e72a000",
          "blockHash": "0xecef369e87a86a252d5b564f290c2ecb067f1f30f43c514d6f51dff41b4de8fd",
          "blockNumber": "0x5f4797",
          "transactionHash": "0x506d5b7f485ff6e9db6f20373163b1936a2721943833d6e7e8921375d3209d3a",
          "transactionIndex": "0x15",
          "logIndex": "0x24",
          "removed": false
        }
      ],
      "logsBloom": "0x00000000000000000000000000000000000000000000000000000000000000000000000000000000000000000000000000000000000000000000000000040000000000000000000000000000000000000000000000040000000000000000000000000000000000000000000000000000000000000000000000000100000000000000000000000000000000400000000000000000000000000000000000000000000000000000000000000000000000000000000100000004000000000000000000000000000010000000000000000000000000000000000000000000000040000010000000000000000000000000000000000000000000000000000000000000",
      "type": "0x0",
      "transactionHash": "0x506d5b7f485ff6e9db6f20373163b1936a2721943833d6e7e8921375d3209d3a",
      "transactionIndex": "0x15",
      "blockHash": "0xecef369e87a86a252d5b564f290c2ecb067f1f30f43c514d6f51dff41b4de8fd",
      "blockNumber": "0x5f4797",
      "gasUsed": "0x12b76",
      "effectiveGasPrice": "0x834986d1e",
      "from": "0x385d01dee3758d49a7a9cb2b18d10141bb572348",
      "to": "0xba573146c34e5daa07d9fd2bb77aa214c30db8af",
      "contractAddress": null
    },
    {
      "status": "0x1",
      "cumulativeGasUsed": "0x1cddf6",
      "logs": [
        {
          "address": "0xba573146c34e5daa07d9fd2bb77aa214c30db8af",
          "topics": [
            "0x414d6a76d6a104efa26174057b560f7351b16d60f3e31756f01e67f9b264e5b9",
            "0x0000000000000000000000000000000000000000000000000000000000000001"
          ],
          "data": "0x0000000000000000000000001a870c94a199eb623b545b58eb175f72e1dc629e000000000000000000000000000000000000000000000000000008a3e4201800",
          "blockHash": "0x0eea584b0dec60d7540150ca2da4c2b1d19a13272fefdc19548a8af74713df44",
          "blockNumber": "0x5f4798",
          "transactionHash": "0xdfe65795bb85be795e2da087e20e7183643a31e3115940bbeb1147befe2fba15",
          "transactionIndex": "0xc",
          "logIndex": "0x11",
          "removed": false
        }
      ],
      "logsBloom": "0x00000000000000000000000000000000000000000000000000000000000000000000000000000000000000040000000000000000000000000000000000040000000000000000000000000000000000000000000000040000000000000000000000000000000000000000000000000000000000000000000000000000000000000000000000000000000000400000000000000000000000000000000000000000000000000000100000000000000000008000000100000000000000000000000000000000000000000000000000000000000000000000000000000000000040000010000000000000000000000000000000000000000000000000000000000000",
      "type": "0x0",
      "transactionHash": "0xdfe65795bb85be795e2da087e20e7183643a31e3115940bbeb1147befe2fba15",
      "transactionIndex": "0xc",
      "blockHash": "0x0eea584b0dec60d7540150ca2da4c2b1d19a13272fefdc19548a8af74713df44",
      "blockNumber": "0x5f4798",
      "gasUsed": "0x139cd",
      "effectiveGasPrice": "0x834986d1e",
      "from": "0x1a870c94a199eb623b545b58eb175f72e1dc629e",
      "to": "0xba573146c34e5daa07d9fd2bb77aa214c30db8af",
      "contractAddress": null
    },
    {
      "status": "0x1",
      "cumulativeGasUsed": "0x17aa99",
      "logs": [
        {
          "address": "0xba573146c34e5daa07d9fd2bb77aa214c30db8af",
          "topics": [
            "0x63c92f9505d420bff631cb9df33be952bdc11e2118da36a850b43e6bcc4ce4de",
            "0x0000000000000000000000000000000000000000000000000000000000000002"
          ],
          "data": "0x0000000000000000000000001a870c94a199eb623b545b58eb175f72e1dc629e",
          "blockHash": "0x826f932138af3b59624399a2689c252e31a4db487efc6d344129dc009b935033",
          "blockNumber": "0x5f4799",
          "transactionHash": "0xbbb0125f49f648e27b5d62bc1679b0a73eec06647539a71fe48ee752d1f0581d",
          "transactionIndex": "0xa",
          "logIndex": "0xe",
          "removed": false
        }
      ],
      "logsBloom": "0x04000000000000000000000000000000008000001000000000000000000000000000000000000000000000000000000000000000000000000000000000000000000000000000000000000000000000000000000000000000000000000000000000000000000000000000000000000000100000000000000000000000000000000000000000000000000000400000000000000000000000000000000000000000000000000000000000000100000000000000000100000000000000000000000000000000000000000000000000000000000000000000000000000000000000000010000000000000000000000000000000000000008000000000000000000000",
      "type": "0x0",
      "transactionHash": "0xbbb0125f49f648e27b5d62bc1679b0a73eec06647539a71fe48ee752d1f0581d",
      "transactionIndex": "0xa",
      "blockHash": "0x826f932138af3b59624399a2689c252e31a4db487efc6d344129dc009b935033",
      "blockNumber": "0x5f4799",
      "gasUsed": "0x2905c",
      "effectiveGasPrice": "0x834986d1e",
      "from": "0x1a870c94a199eb623b545b58eb175f72e1dc629e",
      "to": "0xba573146c34e5daa07d9fd2bb77aa214c30db8af",
      "contractAddress": null
    },
    {
      "status": "0x1",
      "cumulativeGasUsed": "0x159d35",
      "logs": [
        {
          "address": "0xba573146c34e5daa07d9fd2bb77aa214c30db8af",
          "topics": [
            "0x57e19e2aa06e728bbca970637be628efcda39018466d09026b4d04232479acb8",
            "0x0000000000000000000000000000000000000000000000000000000000000002"
          ],
          "data": "0x000000000000000000000000385d01dee3758d49a7a9cb2b18d10141bb572348000000000000000000000000000000000000000000000000000009184e72a000",
          "blockHash": "0x902381e4eb77fbd19702a7d2be552c470d628232dfc5fe42e3cfdb190879abb2",
          "blockNumber": "0x5f479a",
          "transactionHash": "0x18db40210d11aa679d5dc505091f4749e404e0c1b6744280aa9651b98c50e06a",
          "transactionIndex": "0xc",
          "logIndex": "0x16",
          "removed": false
        }
      ],
      "logsBloom": "0x04000000000000000000000000000000000000000000000000000000000000000000000000000000000000000000000000000000000000000000000000000000000000000000000000000000000000000000000000000000000000000000000000000000000000000000000000000000000000000000000000000100000000000000000000000000000000400000000000000000000000000000000000000000000000000000000000000100000000000000000100000004000000000000000000000000000010000000000000000000000000000000000000000000000000000010000000000000000000000000000000000000008000000000000000000000",
      "type": "0x0",
      "transactionHash": "0x18db40210d11aa679d5dc505091f4749e404e0c1b6744280aa9651b98c50e06a",
      "transactionIndex": "0xc",
      "blockHash": "0x902381e4eb77fbd19702a7d2be552c470d628232dfc5fe42e3cfdb190879abb2",
      "blockNumber": "0x5f479a",
      "gasUsed": "0x12b76",
      "effectiveGasPrice": "0x834986d1e",
      "from": "0x385d01dee3758d49a7a9cb2b18d10141bb572348",
      "to": "0xba573146c34e5daa07d9fd2bb77aa214c30db8af",
      "contractAddress": null
    },
    {
      "status": "0x1",
      "cumulativeGasUsed": "0x141288",
      "logs": [
        {
          "address": "0xba573146c34e5daa07d9fd2bb77aa214c30db8af",
          "topics": [
            "0x414d6a76d6a104efa26174057b560f7351b16d60f3e31756f01e67f9b264e5b9",
            "0x0000000000000000000000000000000000000000000000000000000000000002"
          ],
          "data": "0x0000000000000000000000001a870c94a199eb623b545b58eb175f72e1dc629e000000000000000000000000000000000000000000000000000008a3e4201800",
          "blockHash": "0xd9423b10ae6457f01cc559e8920d05e1a9af07d41d60d7469a997138e3572b22",
          "blockNumber": "0x5f479b",
          "transactionHash": "0xcc91427b66f727b487bd9f1ec0d3cee8b677cca5dbf6b415dc4cd93235e5672f",
          "transactionIndex": "0x8",
          "logIndex": "0x5",
          "removed": false
        }
      ],
      "logsBloom": "0x04000000000000000000000000000000000000000000000000000000000000000000000000000000000000040000000000000000000000000000000000000000000000000000000000000000000000000000000000000000000000000000000000000000000000000000000000000000000000000000000000000000000000000000000000000000000000400000000000000000000000000000000000000000000000000000100000000100000000008000000100000000000000000000000000000000000000000000000000000000000000000000000000000000000000000010000000000000000000000000000000000000008000000000000000000000",
      "type": "0x0",
      "transactionHash": "0xcc91427b66f727b487bd9f1ec0d3cee8b677cca5dbf6b415dc4cd93235e5672f",
      "transactionIndex": "0x8",
      "blockHash": "0xd9423b10ae6457f01cc559e8920d05e1a9af07d41d60d7469a997138e3572b22",
      "blockNumber": "0x5f479b",
      "gasUsed": "0x139cd",
      "effectiveGasPrice": "0x834986d1e",
      "from": "0x1a870c94a199eb623b545b58eb175f72e1dc629e",
      "to": "0xba573146c34e5daa07d9fd2bb77aa214c30db8af",
      "contractAddress": null
    },
    {
      "status": "0x1",
      "cumulativeGasUsed": "0xa2734",
      "logs": [
        {
          "address": "0xba573146c34e5daa07d9fd2bb77aa214c30db8af",
          "topics": [
            "0x63c92f9505d420bff631cb9df33be952bdc11e2118da36a850b43e6bcc4ce4de",
            "0x0000000000000000000000000000000000000000000000000000000000000003"
          ],
          "data": "0x0000000000000000000000001a870c94a199eb623b545b58eb175f72e1dc629e",
          "blockHash": "0xbf8db8ae362d7e8b579a560b80225a59ef13fada83047bdda9c1b6b82e27b43d",
          "blockNumber": "0x5f479c",
          "transactionHash": "0xf78c2ae06573f44420583a52858c697ef5f322ff6e336d896d20467936a20a66",
          "transactionIndex": "0xc",
          "logIndex": "0x4",
          "removed": false
        }
      ],
      "logsBloom": "0x00000000000000000000000000000000008000001000000000000000000000000000000000000000000000000000000000000000020000000000000000000000000000000000000000000000000000000000000000000000000000000000000000000000000000000000000000000000100000000000000000000000000000000000000000000000000000400000000000000000000000000000000000000000000000000000000000000000000000000000000100800000000000000000400000000000000000000000000000000000000000000000000000000000000000000010000000000000000000000000000000000000000000000000000000000000",
      "type": "0x0",
      "transactionHash": "0xf78c2ae06573f44420583a52858c697ef5f322ff6e336d896d20467936a20a66",
      "transactionIndex": "0xc",
      "blockHash": "0xbf8db8ae362d7e8b579a560b80225a59ef13fada83047bdda9c1b6b82e27b43d",
      "blockNumber": "0x5f479c",
      "gasUsed": "0x2905c",
      "effectiveGasPrice": "0x834986d1e",
      "from": "0x1a870c94a199eb623b545b58eb175f72e1dc629e",
      "to": "0xba573146c34e5daa07d9fd2bb77aa214c30db8af",
      "contractAddress": null
    },
    {
      "status": "0x1",
      "cumulativeGasUsed": "0xe72da",
      "logs": [
        {
          "address": "0xba573146c34e5daa07d9fd2bb77aa214c30db8af",
          "topics": [
            "0x57e19e2aa06e728bbca970637be628efcda39018466d09026b4d04232479acb8",
            "0x0000000000000000000000000000000000000000000000000000000000000003"
          ],
          "data": "0x000000000000000000000000385d01dee3758d49a7a9cb2b18d10141bb572348000000000000000000000000000000000000000000000000000009184e72a000",
          "blockHash": "0x8cac41a7b7b647aabda13c094ffcbf56c5ada80f0316f19d23809058951ccb89",
          "blockNumber": "0x5f479d",
          "transactionHash": "0xd45585290fed7ccf10fdfa147d7d1ea89d6900cc2067a979ac0450b05160460b",
          "transactionIndex": "0xa",
          "logIndex": "0xb",
          "removed": false
        }
      ],
      "logsBloom": "0x00000000000000000000000000000000000000000000000000000000000000000000000000000000000000000000000000000000020000000000000000000000000000000000000000000000000000000000000000000000000000000000000000000000000000000000000000000000000000000000000000000100000000000000000000000000000000400000000000000000000000000000000000000000000000000000000000000000000000000000000100800004000000000000400000000000000010000000000000000000000000000000000000000000000000000010000000000000000000000000000000000000000000000000000000000000",
      "type": "0x0",
      "transactionHash": "0xd45585290fed7ccf10fdfa147d7d1ea89d6900cc2067a979ac0450b05160460b",
      "transactionIndex": "0xa",
      "blockHash": "0x8cac41a7b7b647aabda13c094ffcbf56c5ada80f0316f19d23809058951ccb89",
      "blockNumber": "0x5f479d",
      "gasUsed": "0x12b76",
      "effectiveGasPrice": "0x834986d1e",
      "from": "0x385d01dee3758d49a7a9cb2b18d10141bb572348",
      "to": "0xba573146c34e5daa07d9fd2bb77aa214c30db8af",
      "contractAddress": null
    },
    {
      "status": "0x1",
      "cumulativeGasUsed": "0xa600b",
      "logs": [
        {
          "address": "0xba573146c34e5daa07d9fd2bb77aa214c30db8af",
          "topics": [
            "0x414d6a76d6a104efa26174057b560f7351b16d60f3e31756f01e67f9b264e5b9",
            "0x0000000000000000000000000000000000000000000000000000000000000003"
          ],
          "data": "0x0000000000000000000000001a870c94a199eb623b545b58eb175f72e1dc629e000000000000000000000000000000000000000000000000000008a3e4201800",
          "blockHash": "0x6a00369c12ed6d2ca990dc5a1c72fafe633350ae294b1c676dd242694662f065",
          "blockNumber": "0x5f479e",
          "transactionHash": "0xd696d3a82375976c202dfc9df9970eb145f22992199fcfeaf3ad0fbfb2eef623",
          "transactionIndex": "0x8",
          "logIndex": "0x7",
          "removed": false
        }
      ],
      "logsBloom": "0x00000000000000000000000000000000000000000000000000000000000000000000000000000000000000040000000000000000020000000000000000000000000000000000000000000000000000000000000000000000000000000000000000000000000000000000000000000000000000000000000000000000000000000000000000000000000000400000000000000000000000000000000000000000000000000000100000000000000000008000000100800000000000000000400000000000000000000000000000000000000000000000000000000000000000000010000000000000000000000000000000000000000000000000000000000000",
      "type": "0x0",
      "transactionHash": "0xd696d3a82375976c202dfc9df9970eb145f22992199fcfeaf3ad0fbfb2eef623",
      "transactionIndex": "0x8",
      "blockHash": "0x6a00369c12ed6d2ca990dc5a1c72fafe633350ae294b1c676dd242694662f065",
      "blockNumber": "0x5f479e",
      "gasUsed": "0x139cd",
      "effectiveGasPrice": "0x834986d1e",
      "from": "0x1a870c94a199eb623b545b58eb175f72e1dc629e",
      "to": "0xba573146c34e5daa07d9fd2bb77aa214c30db8af",
      "contractAddress": null
    },
    {
      "status": "0x1",
      "cumulativeGasUsed": "0x1f7bcd",
      "logs": [
        {
          "address": "0xba573146c34e5daa07d9fd2bb77aa214c30db8af",
          "topics": [
            "0x63c92f9505d420bff631cb9df33be952bdc11e2118da36a850b43e6bcc4ce4de",
            "0x0000000000000000000000000000000000000000000000000000000000000004"
          ],
          "data": "0x0000000000000000000000001a870c94a199eb623b545b58eb175f72e1dc629e",
          "blockHash": "0x34260fe7f79a1e235f6cef9e8d690628d62e1f04296db88191345ea2856fa9e8",
          "blockNumber": "0x5f479f",
          "transactionHash": "0x6d0b6d0b891004076a72c34dea818ff3213a7c333cda38a1c3980fa35ec27ddb",
          "transactionIndex": "0x10",
          "logIndex": "0x17",
          "removed": false
        }
      ],
      "logsBloom": "0x00000000000000000000000000000000008000001000000000000000000000000000000000000000000000000000000000000000000000000000000000000000000000000000000000000000000000000000000000000000000000000000000008000000000000000000000000000000100000000000000000000000000000000000000000000000000000400000000000000000000000000000000000000000000000000000000000000000000000000000000100000000002000000000000000000000000000000000000000000000000000008000000000000000000000000010000000000000000000000000000000000000000000000000000000000000",
      "type": "0x0",
      "transactionHash": "0x6d0b6d0b891004076a72c34dea818ff3213a7c333cda38a1c3980fa35ec27ddb",
      "transactionIndex": "0x10",
      "blockHash": "0x34260fe7f79a1e235f6cef9e8d690628d62e1f04296db88191345ea2856fa9e8",
      "blockNumber": "0x5f479f",
      "gasUsed": "0x2905c",
      "effectiveGasPrice": "0x834986d1e",
      "from": "0x1a870c94a199eb623b545b58eb175f72e1dc629e",
      "to": "0xba573146c34e5daa07d9fd2bb77aa214c30db8af",
      "contractAddress": null
    },
    {
      "status": "0x1",
      "cumulativeGasUsed": "0x1807ac",
      "logs": [
        {
          "address": "0xba573146c34e5daa07d9fd2bb77aa214c30db8af",
          "topics": [
            "0x57e19e2aa06e728bbca970637be628efcda39018466d09026b4d04232479acb8",
            "0x0000000000000000000000000000000000000000000000000000000000000004"
          ],
          "data": "0x000000000000000000000000385d01dee3758d49a7a9cb2b18d10141bb572348000000000000000000000000000000000000000000000000000009184e72a000",
          "blockHash": "0x0a95608b2f7f9a33dd7a429e46f1896be92cedaff15619af10c6aa76d82ec352",
          "blockNumber": "0x5f47a0",
          "transactionHash": "0xd8d9067d64c4ff7a1bfca81cec6ebcf4096569f49176a27af4169ff46d9e093a",
          "transactionIndex": "0x9",
          "logIndex": "0x11",
          "removed": false
        }
      ],
      "logsBloom": "0x00000000000000000000000000000000000000000000000000000000000000000000000000000000000000000000000000000000000000000000000000000000000000000000000000000000000000000000000000000000000000000000000008000000000000000000000000000000000000000000000000000100000000000000000000000000000000400000000000000000000000000000000000000000000000000000000000000000000000000000000100000004002000000000000000000000000010000000000000000000000000008000000000000000000000000010000000000000000000000000000000000000000000000000000000000000",
      "type": "0x0",
      "transactionHash": "0xd8d9067d64c4ff7a1bfca81cec6ebcf4096569f49176a27af4169ff46d9e093a",
      "transactionIndex": "0x9",
      "blockHash": "0x0a95608b2f7f9a33dd7a429e46f1896be92cedaff15619af10c6aa76d82ec352",
      "blockNumber": "0x5f47a0",
      "gasUsed": "0x12b76",
      "effectiveGasPrice": "0x834986d1e",
      "from": "0x385d01dee3758d49a7a9cb2b18d10141bb572348",
      "to": "0xba573146c34e5daa07d9fd2bb77aa214c30db8af",
      "contractAddress": null
    },
    {
      "status": "0x1",
      "cumulativeGasUsed": "0x5a88e",
      "logs": [
        {
          "address": "0xba573146c34e5daa07d9fd2bb77aa214c30db8af",
          "topics": [
            "0x414d6a76d6a104efa26174057b560f7351b16d60f3e31756f01e67f9b264e5b9",
            "0x0000000000000000000000000000000000000000000000000000000000000004"
          ],
          "data": "0x0000000000000000000000001a870c94a199eb623b545b58eb175f72e1dc629e000000000000000000000000000000000000000000000000000008a3e4201800",
          "blockHash": "0x2556e3c9fd6ac8a0a4bd03667b3f3d72bfad736b3c0bccbd8e3e93b88edd3c52",
          "blockNumber": "0x5f47a1",
          "transactionHash": "0x7eb0efaadc202669e43fa2cc6abb54d30c96d264136a6d600dbf589d801ada07",
          "transactionIndex": "0x5",
          "logIndex": "0x2",
          "removed": false
        }
      ],
      "logsBloom": "0x00000000000000000000000000000000000000000000000000000000000000000000000000000000000000040000000000000000000000000000000000000000000000000000000000000000000000000000000000000000000000000000000008000000000000000000000000000000000000000000000000000000000000000000000000000000000000400000000000000000000000000000000000000000000000000000100000000000000000008000000100000000002000000000000000000000000000000000000000000000000000008000000000000000000000000010000000000000000000000000000000000000000000000000000000000000",
      "type": "0x0",
      "transactionHash": "0x7eb0efaadc202669e43fa2cc6abb54d30c96d264136a6d600dbf589d801ada07",
      "transactionIndex": "0x5",
      "blockHash": "0x2556e3c9fd6ac8a0a4bd03667b3f3d72bfad736b3c0bccbd8e3e93b88edd3c52",
      "blockNumber": "0x5f47a1",
      "gasUsed": "0x139cd",
      "effectiveGasPrice": "0x834986d1e",
      "from": "0x1a870c94a199eb623b545b58eb175f72e1dc629e",
      "to": "0xba573146c34e5daa07d9fd2bb77aa214c30db8af",
      "contractAddress": null
    },
    {
      "status": "0x1",
      "cumulativeGasUsed": "0xa379f",
      "logs": [
        {
          "address": "0xba573146c34e5daa07d9fd2bb77aa214c30db8af",
          "topics": [
            "0x63c92f9505d420bff631cb9df33be952bdc11e2118da36a850b43e6bcc4ce4de",
            "0x0000000000000000000000000000000000000000000000000000000000000005"
          ],
          "data": "0x0000000000000000000000001a870c94a199eb623b545b58eb175f72e1dc629e",
          "blockHash": "0xdc82bd8dc006680ad2fb50a527c77a62fd6916eaa676b127f8351597740bddbc",
          "blockNumber": "0x5f47a2",
          "transactionHash": "0xd117f8c3d7bb20b7f55c71d6d17e5db5199ccd8943dd6d5de11ed9df82dde8f9",
          "transactionIndex": "0x6",
          "logIndex": "0x2",
          "removed": false
        }
      ],
      "logsBloom": "0x00000000000000000000000000000000008000001000000000000000000000000000000000000000000000000000000000000000000000000000000000000000000010000000000000000000000000000000000000000000000000000000000000000000000000000000000000000000100000000000000000000000000000000000000000000000000000400000001000000800000000000000000000000000000000000000000000000000000000000000000100000000000000000000000000000000000000000000000000000000000000000000000000000000000000000010000000000000000000000000000000000000000000000000000000000000",
      "type": "0x0",
      "transactionHash": "0xd117f8c3d7bb20b7f55c71d6d17e5db5199ccd8943dd6d5de11ed9df82dde8f9",
      "transactionIndex": "0x6",
      "blockHash": "0xdc82bd8dc006680ad2fb50a527c77a62fd6916eaa676b127f8351597740bddbc",
      "blockNumber": "0x5f47a2",
      "gasUsed": "0x2905c",
      "effectiveGasPrice": "0x834986d1e",
      "from": "0x1a870c94a199eb623b545b58eb175f72e1dc629e",
      "to": "0xba573146c34e5daa07d9fd2bb77aa214c30db8af",
      "contractAddress": null
    },
    {
      "status": "0x1",
      "cumulativeGasUsed": "0x386df",
      "logs": [
        {
          "address": "0xba573146c34e5daa07d9fd2bb77aa214c30db8af",
          "topics": [
            "0x57e19e2aa06e728bbca970637be628efcda39018466d09026b4d04232479acb8",
            "0x0000000000000000000000000000000000000000000000000000000000000005"
          ],
          "data": "0x000000000000000000000000385d01dee3758d49a7a9cb2b18d10141bb572348000000000000000000000000000000000000000000000000000009184e72a000",
          "blockHash": "0x1efa10d9a36737e2734099f3ab60f68dd0182561acd126f8c98d5a028cb3ebaa",
          "blockNumber": "0x5f47a3",
          "transactionHash": "0x1808c850a178752a3f7c463809eecf5b68e754d8b7aead583d2ddab375162c26",
          "transactionIndex": "0x4",
          "logIndex": "0x3",
          "removed": false
        }
      ],
      "logsBloom": "0x00000000000000000000000000000000000000000000000000000000000000000000000000000000000000000000000000000000000000000000000000000000000010000000000000000000000000000000000000000000000000000000000000000000000000000000000000000000000000000000000000000100000000000000000000000000000000400000001000000800000000000000000000000000000000000000000000000000000000000000000100000004000000000000000000000000000010000000000000000000000000000000000000000000000000000010000000000000000000000000000000000000000000000000000000000000",
      "type": "0x0",
      "transactionHash": "0x1808c850a178752a3f7c463809eecf5b68e754d8b7aead583d2ddab375162c26",
      "transactionIndex": "0x4",
      "blockHash": "0x1efa10d9a36737e2734099f3ab60f68dd0182561acd126f8c98d5a028cb3ebaa",
      "blockNumber": "0x5f47a3",
      "gasUsed": "0x12b76",
      "effectiveGasPrice": "0x834986d1e",
      "from": "0x385d01dee3758d49a7a9cb2b18d10141bb572348",
      "to": "0xba573146c34e5daa07d9fd2bb77aa214c30db8af",
      "contractAddress": null
    },
    {
      "status": "0x1",
      "cumulativeGasUsed": "0x85c4c",
      "logs": [
        {
          "address": "0xba573146c34e5daa07d9fd2bb77aa214c30db8af",
          "topics": [
            "0x414d6a76d6a104efa26174057b560f7351b16d60f3e31756f01e67f9b264e5b9",
            "0x0000000000000000000000000000000000000000000000000000000000000005"
          ],
          "data": "0x0000000000000000000000001a870c94a199eb623b545b58eb175f72e1dc629e000000000000000000000000000000000000000000000000000008a3e4201800",
          "blockHash": "0x7fe091572643adef7a3a3a724e3113724e7442bf3399e9050d29716a88545f5b",
          "blockNumber": "0x5f47a4",
          "transactionHash": "0x5ef169f285cfca49fb4ed1f75d738a153d47cbc2681b306034eaa9aa75592290",
          "transactionIndex": "0x6",
          "logIndex": "0x7",
          "removed": false
        }
      ],
      "logsBloom": "0x00000000000000000000000000000000000000000000000000000000000000000000000000000000000000040000000000000000000000000000000000000000000010000000000000000000000000000000000000000000000000000000000000000000000000000000000000000000000000000000000000000000000000000000000000000000000000400000001000000800000000000000000000000000000000000000100000000000000000008000000100000000000000000000000000000000000000000000000000000000000000000000000000000000000000000010000000000000000000000000000000000000000000000000000000000000",
      "type": "0x0",
      "transactionHash": "0x5ef169f285cfca49fb4ed1f75d738a153d47cbc2681b306034eaa9aa75592290",
      "transactionIndex": "0x6",
      "blockHash": "0x7fe091572643adef7a3a3a724e3113724e7442bf3399e9050d29716a88545f5b",
      "blockNumber": "0x5f47a4",
      "gasUsed": "0x139cd",
      "effectiveGasPrice": "0x834986d1e",
      "from": "0x1a870c94a199eb623b545b58eb175f72e1dc629e",
      "to": "0xba573146c34e5daa07d9fd2bb77aa214c30db8af",
      "contractAddress": null
    }
  ],
  "libraries": [],
  "pending": [],
  "returns": {},
  "timestamp": 1720094668,
  "chain": 11155111,
  "commit": "497d048"
}